:020000041000EA
:101000004805002019100010000000009910001081
:1010100000040100000100001149124A124B00F0C7
:1010200018F8124880471249124A134B00F011F881
:101030001249134A134B00F00CF81349134A0020CD
:10104000521A02DD043A8850FCDC114880471148EE
:1010500080479B1A03DD043BC858D050FBDC704727
:101060005C5400100C00002044010020211E0010E0
:10107000945500104805002064070020B057001068
:10108000640700206407002064070020240C00206F
:10109000B551001065400010FEE70000314A38B538
:1010A000138801339BB213803D2B02D100231380A0
:1010B00057E0142B07D100242B4DEB6A1C805C8079
:1010C0009C80DC800AE0282B0FD1FA220024264DD8
:1010D0001201EB6A1C805A809C80DA80281C01F087
:1010E00083FE281C211C214A39E02D2B08D1002425
:1010F0000A221D4DEB6A1C805A809C80DA8017E022
:10110000322B0BD1FA22184C1201E36A201C1A80F0
:101110005A809A80DA8001F067FE1AE0372B0DD1F1
:10112000C8220024104DEB6A1A805C809A80DC8013
:10113000281C01F059FE281C211C0FE03C2B10D16B
:10114000FA220A21084C1201E36A19805A80998018
:10115000DA80201C01F048FE201C0021B72201F09B
:1011600060FE38BD660700206C050020D10300003A
:10117000704700000B220D4B1A700D4B0A3A1A7083
:1011800001325A7001329A700132DA7001321A71EA
:1011900001325A7101329A710132DA7101321A72D6
:1011A00058325A7201329A727047C0464A0500207E
:1011B000FC0700200B224C210D4B1A700D4B1970AF
:1011C000033959701A710531643299705A710A499C
:1011D0000A4A09781288D970DA71110A084A997195
:1011E0001288110A5A72FF2219729A727047C04609
:1011F0004A050020FC0700202C08002026080020BB
:10120000980800200B224C210D4B1A700D4B1970C1
:10121000033959701A710531563299705A710A4959
:101220000A4A09781288D970DA71110A084A997144
:101230001288110A5A72FF2219729A727047C046B8
:101240004A050020FC0700202C080020EC080020A4
:10125000F80700200B224C210D4B1A700D4B197012
:10126000033959701A710531573299705A710A4908
:101270000A4A09781288D970DA71110A084A9971F4
:101280001288110A5A72FF2219729A727047C04668
:101290004A050020FC0700202C080020F007002051
:1012A000180800200B224C210D4B1A700D4B1970A1
:1012B000033959701A7105315B3299705A710A49B4
:1012C0000A4A09781288D970DA71110A084A9971A4
:1012D0001288110A5A72FF2219729A727047C04618
:1012E0004A050020FC0700202C0800209C08002054
:1012F000B00800200D224C21104B1A70104B1970B1
:10130000033959701A7105315A3299705A710D4961
:101310000D4A09781288D970DA71110A0B4A99714D
:101320001288110A5A720A4A197212789A72094A74
:101330001278DA72FF221A737047C0464A050020FD
:10134000FC0700202C080020EE0800205808002090
:101350004E080020100800200B224C210D4B1A7063
:101360000D4B1970033959701A7105315D3299703E
:101370005A710A490A4A09781288D970DA71110A31
:10138000084A99711288110A5A72FF2219729A72C8
:101390007047C0464A050020FC0700202C080020AA
:1013A0004C050020480500200B224C210D4B1A70E3
:1013B0000D4B1970033959701A7105315E329970ED
:1013C0005A710A490A4A09781288D970DA71110AE1
:1013D000084A99711288110A5A72FF2219729A7278
:1013E0007047C0464A050020FC0700202C0800205A
:1013F0004E050020900800200B224C210B4B1A7048
:101400000B4B1970033959700531997009491A71DC
:1014100009785F32D9706F215A710132DA715A72CC
:101420009432997119729A727047C0464A05002029
:10143000FC0700202C0800200C224C210E4B1A70B7
:101440000E4B1A715F325A710D4A197012780339B6
:101450005970053199709A710A490B4A09781288B6
:10146000D9701A72110A094AD9711288110A9A722E
:10147000FF225972DA7270474A050020FC070020EB
:10148000C40700202C08002026080020980800200F
:101490000F224C21124B1A70124B197003395970DC
:1014A0001A7105315D3299705A710F490F4A0978E6
:1014B0001288D970DA71110A0D4A99711288110ACD
:1014C0005A720C4A19721288110ADA720A4A99720F
:1014D0001288110A5A73FF2219739A737047C04613
:1014E0004A050020FC0700202C0800200E080020E0
:1014F000F208002026080020980800200D214C2228
:101500000F4B19700F4B1A70033A5A7005329A70CC
:101510000D4A197112786031DA705971DA710B491C
:101520000B4A0978128899715A72110A094A19727C
:101530001288110ADA72FF2299721A737047C04634
:101540004A050020FC0700202C0800203A08002053
:1015500026080020980800200B224C210D4B1A7001
:101560000D4B1970033959701A7105316332997036
:101570005A710A490A4A09781288D970DA71110A2F
:10158000084A99711288110A5A72FF2219729A72C6
:101590007047C0464A050020FC0700202C080020A8
:1015A000260800209808002018221A4B4C211A7097
:1015B000194B1A7158325A71002219700339597037
:1015C0000531997015499A710978154AD9701178C1
:1015D000D9715178197291785972D17899721179BB
:1015E000D9725179197391795973D1799973117AA3
:1015F000D973517A1974917A5974D17A9974117B8B
:10160000D974517B1975917B5975D27B9A75FF22DC
:10161000DA7570474A050020FC0700202C080020DE
:101620003B080020002300220B49CA540133DBB2DF
:10163000102BF8D1002309498B540132D2B2102A61
:10164000F8D10021064AD1540133DBB2202BF8D166
:10165000044A13707047C046800800203B080020F1
:10166000C5070020E807002038B502F025FB094B2C
:10167000094D18701C1C032806D102380021074AA6
:10168000102302F0EBFA287028782378000118184C
:1016900038BDC04657080020EA0800208008002016
:1016A00038B502F009FB094B094D18701C1C0328C2
:1016B00006D101380021074A102302F0CFFA287022
:1016C000287823780001181838BDC0465708002034
:1016D000EA0800203B08002038B502F0EDFA094B7B
:1016E000094D18701C1C032806D101300021074A3F
:1016F000102302F0B3FA2870287823780001181814
:1017000038BDC04657080020EA0800203B080020EA
:1017100038B502F0D1FA094B094D18701C1C03288A
:1017200006D102300021074A102302F097FA2870F0
:10173000287823780001181838BDC04657080020C3
:10174000EA0800203B0800200D4B70B51A88BA2328
:101750000C4E0D4D80241B019A420AD902F0ACFABE
:1017600000243070032804D10238084902F066FAD8
:1017700028702878337800011818001970BDC04609
:101780005005002057080020EA08002080080020AB
:101790000D4B70B51A88BA230C4E0D4D80241B01D9
:1017A0009A420AD902F088FA00243070032804D142
:1017B0000138084902F042FA28702878337800018D
:1017C0001818001970BDC0465005002057080020A9
:1017D000EA0800203B0800200C4B70B51A88BA2399
:1017E0000B4E0C4D80241B019A4209D902F064FA79
:1017F00000243070032803D1074902F01FFA287033
:101800002878337800011818001970BD50050020A1
:1018100057080020EA080020C50700200D4B70B5CE
:101820001A88BA230C4E0D4D80241B019A420AD906
:1018300002F042FA00243070032804D10130084934
:1018400002F0FCF928702878337800011818001984
:1018500070BDC0465005002057080020EA0800204F
:101860003B0800200D4B70B51A88BA230C4E0D4D65
:1018700080241B019A420AD902F01EFA002430701B
:10188000032804D10230084902F0D8F928702878DA
:10189000337800011818001970BDC04650050020AB
:1018A00057080020EA0800203B0800200C4B0D4A96
:1018B0001A800D4B0D4A1A80FA230D4A9B001380A3
:1018C0000C4A13800C4A13800C4A13800C4A138074
:1018D0000C4A138000230C4A13800C4A1380704773
:1018E000260800207A7B0000980800205958000044
:1018F000EA070020A408002032080020F607002094
:10190000EC070020240800200E080020F208002028
:1019100001230E4A0E4913700E4A13700E4A1180AD
:10192000FA220E49D2000A800D490A80E1210D4AAF
:10193000090111800C4A0D4911800A210C4A1180BD
:101940000C4A2B3111800C4A137070472C08002070
:10195000341200003A0800205408002050080020EB
:10196000E408002030080020AE08002068100000C5
:101970002A0800204C080020C40700200A23012167
:10198000154A49421370154A1370154A1370154AC7
:101990001370154A1380154AA6331380144A118018
:1019A0000021144A1180FA22134992000A80134937
:1019B0000A80134A1380134A1380134A1380134A70
:1019C0001380134A4F331380124A1380124A138034
:1019D000124A13807047C04656080020360800207F
:1019E0007C0800200C0800209A0800204E050020EA
:1019F00090080020A80800202E0800207E08002063
:101A0000E607002038080020F608002034080020EF
:101A100028080020E2080020140800209608002072
:101A200005220B4B1A7000230A4A13700A4A1380CE
:101A30000A4B0B4A13800B4A13800B4B0B4A138043
:101A40000B4A13800B4B0C4A13800C4A13807047CF
:101A50004E08002010080020EE070020FF0F0000B5
:101A6000EE08002058080020FF0100009408002024
:101A7000A2080020FF020000C20700205C0900202D
:101A800000B50F4B18780138042817D80D4A0E4BB3
:101A900003F07CFB030509090E00002100E00B495F
:101AA000118019800AE00A4909881180094A03E077
:101AB000094909881180094A12881A8000BDC04668
:101AC0004E0800209C080020B0080020FF7F000086
:101AD000C20700205C090020EE0800205808002002
:101AE000F8B5164F164B381C198801F003FA154E3D
:101AF000154B301C198801F0FDF9144D144B281CAE
:101B0000198801F0F7F9134C134B201C198801F0C8
:101B1000F1F9124B381C198801F0F1F9104B301C07
:101B2000198801F0ECF90F4B281C198801F0E7F92E
:101B30000D4B201C198801F0E2F9F8BDEC050020DE
:101B4000F20700201C060020F00800204C060020B0
:101B5000F40700207C060020FA0700203808002047
:101B600034080020E6070020F6080020114B124937
:101B70001B8810B51A0A101C0A801049DBB20A80B3
:101B80000F49104C0B8010490B80104909884843BD
:101B90005943000B20800E48090B01800D490E4867
:101BA00009884A434B43120B02800C4A1B0B1380DB
:101BB00010BDC0469008002028080020E208002040
:101BC00014080020F4070020960800209C0800203C
:101BD000F2070020B0080020FA070020F0080020DB
:101BE000084B09481A8813049A1A084B110C1A88D2
:101BF000074B9B1A4B434A431B0C0380054B120CAB
:101C00001A8070474C0500209C08002048050020E1
:101C1000FFFF0000B0080020F8B51C4B1B78052B17
:101C200033D11B4A1388141C01339BB23B2B01D8C0
:101C300013802AE000231380FFF76AFDC0B2032857
:101C400021D1144B1888144B050A1880134B19889E
:101C5000134B1980134B1A79AA420DD1FF22061C8F
:101C60005F791640B74207D19F790E0AB74203D178
:101C7000DE790A40964206D00A0A1D7158719A719F
:101C8000D971FFF7EFFD00232380F8BD4E08002037
:101C90006C0700209C080020EE080020B0080020FF
:101CA000580800203B08002008B5024802F096F8CA
:101CB00008BDC046985300100322224822490388D9
:101CC00010B55343214C09885B1821889B10038071
:101CD00051431F4800880918891021801D4C1E4857
:101CE00021880088514309181C48891021800188E7
:101CF0004A431B49098852181A49921002800A88DF
:101D0000013292B2052A01D80A801AE000220A8024
:101D100015498B4207DC154B1A70154B1A68197B55
:101D200080235B020BE0BF221201934209DD0F4BBF
:101D30001B78002B05D10E4B1A68197B01238B40B1
:101D4000536010BDEC080020BE070020F8070020FB
:101D500092080020F0070020F40800201808002056
:101D600064070020680700209F0B00006A0700201E
:101D70002853001010B50D4C2378002B15D1FFF718
:101D80003BFB30230A490B484B710B4B1B881A0A4B
:101D9000CB710A4B8A711B881A0A4B72084B0A7264
:101DA0001A7800F0EFFC0123237010BD6B070020B0
:101DB000FC0700206005002026080020980800206D
:101DC0004A05002008B5FFF727FFFFF7D3FFFFF70D
:101DD00065F908BD0C4B0D4A196810B50904090EC8
:101DE00011601B680A4ADBB213600A4C002907D055
:101DF0000902C918084800F0F7F94000206001E026
:101E0000064B236010BDC046000301407007002050
:101E100074070020FC3F0020000024F40048E80183
:101E200008B501F081FF01F087FF08BDC021034A1A
:101E3000890193880B4393807047C046000005409A
:101E4000014B188880B270470000054008B5822316
:101E5000021C5B00081C1B68111C984708BD000091
:101E6000F0B5FF26144C9446A588B543C026A5803E
:101E7000A588B6013543A580002B02D0A388612533
:101E800001E0A125A3882B430025A3802B01C718BF
:101E9000CE1865450AD00023F258FA500433102BAF
:101EA000FAD12388DB07FCD40135EFE7FF22A388B2
:101EB0009343A380F0BDC0460000054070B5061CEA
:101EC0000D1C002420023018AC4209D080235B0096
:101ED0001B689847034B1B88DB07FBD40134F1E7F1
:101EE00070BDC04600000540F0B500242301CE18A7
:101EF000C518944207D00023EF58F7500433102B35
:101F0000FAD10134F2E7F0BD08B5FFF79FFF08BD35
:101F1000F7B503240E1C2640A640F827B7408B08CF
:101F20009B00C3181D690196BD434F00BC401D6155
:101F3000456F0426A543456707250D40AD00AE401B
:101F4000CC08A4000419276CB74327645678276C83
:101F5000AE40351C3D432564094CA04204D1012507
:101F60008D40046EAC430466546812788C40446023
:101F7000019819698240161C0E431E61F7BDC046C8
:101F800000020440C022034B5A625A6A5207FCD432
:101F90007047C0460000014010B5041CFFF7F2FF77
:101FA000054B1869204318611A685200FCD4C322FB
:101FB000024B5A6210BDC0460003014000000140C0
:101FC000034B9B681840431E9841C0B27047C046FF
:101FD00000030140F8B50D1C041CFFF7D3FF204B94
:101FE00020491A681868120408401F49120E084355
:101FF0002843186018684000FCD41C4DA600A2427B
:102000001AD89000A0420DD2002A00D101321868DF
:1020100092002840084316023043186018684000B8
:10202000FCD4EEE71A6824022A40114321431960C8
:102030000CE018684000FCD4B242F3D9186892084A
:1020400028400843170238431860F2E71A68520024
:10205000FCD4C322064B5A62FFF7BCFEF8BDC04653
:102060000003014000FF0FC00000F03FFF000FC061
:102070000000014010B5041CFFF784FFA2686168EE
:10208000074811430368074A1340C3220B43036008
:10209000054B5A6260782178FFF79CFF10BDC0465F
:1020A00000030140FFFFF0FF00000140014B1868F2
:1020B0007047C046FC3F002038B50D1C041C1020A2
:1020C000FFF76AFF2B6823606B686360AB68A362ED
:1020D00038BD00000268044B8901134003600368A7
:1020E000194301607047C0463FFCFFFF0268044B84
:1020F0008902134003600368194301607047C046BA
:10210000FFFBFFFF4268044B090413404360436830
:10211000194341607047C046FFFF00F083691943CF
:102120008161704701228A40111CC3681943C16054
:1021300070478A4003691A43026170478022520245
:102140008A40111C036919430161704710B580244E
:1021500064028C404369A343436101238B401031E7
:102160008A40446923431343436110BD0B68836075
:102170004B68C3608B6803617047000010B5054B66
:102180008468D20223408360836889021A43114322
:10219000816010BDFFF3FFFF8268044B0904134008
:1021A00083608368194381607047C046FFFF00FC6D
:1021B000016070470B6883607047016070478368F7
:1021C0009B0A9B028360836819438160704710B546
:1021D000032449008A408C40111C436FA34343678A
:1021E000436F1943416710BD0422034B5A631862C1
:1021F0005962986A7047C0460000034070B50E1CD3
:10220000041C00F055F8F3791025002B00D01D1C9C
:102210002A1C201C316800F063F80122D540B379F4
:10222000AD18013B5B0013432D021D43E563337979
:102230000232013B1B06FF32134363637379002BA9
:1022400004D0626B013B1B04134304E03279616BE1
:10225000531E1B040B436363A023DB00A363012312
:102260005B42E3643389236470BD031CFC33DA688A
:10227000E023DB041A420BD17F22836B9343DBB252
:10228000802BF9D080239B01C3640430C16702E036
:10229000C0235B00C1507047031CE022FC33196966
:1022A000D204114201D1406D00E0186A80B270473B
:1022B000902310B5DB05041E9C4202D0074B9842C8
:1022C00002D10820FFF768FE0323E360E368DB0721
:1022D000FCD50F22236C9343236410BD00020048F9
:1022E000F0B5012487B063293ED9002A3CD00E1CEA
:1022F0000492051CFFF7DAFE6421FFF775FF6421E5
:10230000071C301CFFF770FF194E01940394341C16
:10231000049B43430593BB02DB1B02930298059980
:10232000FFF762FF124A830A934206D88005800DA8
:10233000B04202D2061C01930394029B013CDB1BBA
:102340000293002CEAD18023039A1B0213432B61D2
:10235000049B6969074A013B9B020A401A43019B9F
:10236000013B1B041A436A61201C07B0F0BDC04644
:10237000FF030000EF8000FCFC3030B5C568064C60
:1023800012062C40C460C568044C1B022C4021433B
:102390000A431343C36030BDFFFFFFF8C0C0FFF81E
:1023A000FC3030B50569084C12062C400461046904
:1023B000064D1B022540802464052C4321430A431B
:1023C0001343036130BDC046FFFFFFF8C0C0FFEFFD
:1023D0001202090611430A1CFC3010B5044B0469B3
:1023E000234003610469034B23401A43026110BD7B
:1023F000FFFFFFF8FFC0FFFF10B507248C408A40A5
:102400008369A3431343836110BD10B507248C4037
:102410008A40FC30C368A3431343C36010BD10B5AA
:1024200007248C408A40FC300369A34313430361B3
:1024300010BD0000FF2208B5024B01201A60FFF713
:10244000ABFD08BD0005014038B5041C0D1CFFF7AD
:10245000F1FF231C6A6904C38022696812020A43DF
:10246000DA67231CAA68A0331A60EA685A60A023BE
:102470002A699B00E2502B68B834236038BD000005
:1024800080220430C36F12061343C022C367084B77
:102490009202D96F114202D0D96FC900FCD4054B0A
:1024A000D96F114202D0DA6FD200FCD47047C04617
:1024B0000404034804080348F0B5002A08D1E026C4
:1024C000CC064905E40E490F1F25F600082709E050
:1024D000F825E02610221827CC024901E40E490F06
:1024E0006D03F604B94094409B00C018A030036807
:1024F000B3431943A94321430160F0BD0022F8B55D
:10250000041C0D1C131C4968FFF7D6FF201C6968CA
:1025100001220023FFF7D0FF201CA968002201231D
:10252000FFF7CAFF0122201CA968131CFFF7C4FF94
:102530002A69231DDA67EA68B4331A606E88EB787B
:102540002D78B6056D07B6096D0F3543F82680273F
:102550007600A551A559D8063F061907C00F3D437F
:102560009A06890F00072843D20F5B0689060143AC
:10257000DB0F52070A439B071343A351F8BD032205
:102580000430C36F93431943C1677047914292412E
:10259000524289180322C0300368934319430160F3
:1025A00070470322C03003689343036070471022D2
:1025B000C0300368134303607047002905D101222E
:1025C0000430C36F1343C36705E0012903D108300A
:1025D000C36F1943C167704770B5041C03250834E5
:1025E000E26F134B0E781340E367E36FAB431A1CA3
:1025F00033079B0F1343321C2A4001D005352B4370
:10260000E3674D680B4BFC302B4343608B68012123
:102610000B438360022A04D1802283685202134351
:1026200083608022E36F52041343E36770BDC046AA
:10263000FFFFFFFE00808080E02210B50F245200D3
:102640008358A3431943815010BD000070B5012485
:10265000051C8C4088352B68A343147B8C40234396
:102660002B60537B7F2B17D8031CB033012905D176
:102670001D68114C08262C401C6007E00026B14262
:1026800004D11F250E1C1C68AC431C600D2414577C
:102690001D68B4402C431C60041CC8342368556872
:1026A00080312B4323609568A36889002B43A36086
:1026B00013680B5070BDC046FFE0FFFF30B507291F
:1026C00003D8D8246400035904E0DA24064D6400DA
:1026D0000359491989000F258A408D40111CAB43CD
:1026E0001943015130BDC046F8FFFF3F704710B598
:1026F00043680C1C2C33197801238B405A1E9C42D2
:1027000000D2621E0068FFF763FE10BD08B5436883
:102710005B68984708BD70B544688568231C2933F9
:102720001E780423002E2BD12E7E023BF6B2002E03
:1027300026D10133002923D0002A21D0023B2B7659
:10274000231CAA602960EE602B331B780268002BE3
:102750000AD08021131C8020FC330902D961D9687A
:10276000C0050143D96004E08021136C89010B434B
:10277000136480232D3421785B028B409366002301
:10278000181C70BD08B5436829331B78002B02D193
:10279000FFF7C1FF00E0042008BD70B546688568FA
:1027A000331C2A331C780423002C29D16C7E023B75
:1027B000E4B2002C24D10133002921D0002A1FD0FB
:1027C000023B69602A616B766C612C363378056850
:1027D000002B10D08023061CDB01FC35111CEB61A3
:1027E000FFF785FFC0213368C905FC331A690A4326
:1027F0001A61231C04E0C0212A6C09020A432A64DE
:10280000181C70BD08B543682A331B78002B02D111
:10281000FFF7C3FF00E0042008BD000038B584685E
:10282000051CE268A3689A421FD243682B331B78C9
:10283000002B11D02868031CFC339B69DB0436D4C1
:10284000E368A268934232D22268D15CFFF70DFDA3
:10285000E3680133E360EDE723680068995CFFF704
:1028600004FDE3680133E36021E00268131CFC33DC
:10287000996909051BD54168081C2B300078002890
:1028800004D0DD680A482840D86003E0106C094B8A
:10289000034013647F20936B8343DBB2802BF9D01A
:1028A0000023237623608B68002B00D0984738BD27
:1028B000FFFFFFBFFFDFFFFF70B54368051C2C3330
:1028C0001B788468002B2BD02868031CFC339B6981
:1028D0001B071CD463692269934207D26268D61829
:1028E000FFF7DAFC30706369013363616369226961
:1028F0009342E9D1002363762B68184AFC331969A7
:102900000A401A616B68DB68002B00D09847616948
:102910002369994221D2591A281CFFF7E8FE1CE0CE
:1029200063692269934208D262680068D618FFF78B
:10293000B3FC307063690133636163692269934258
:102940000BD100232A686376116C054B0B4013648E
:102950006B68DB68002B00D0984770BDFFFFFF9FBE
:10296000FF3FFFFF10B590242C4AE4052C480121BD
:10297000FFF7CEFA201C2B49FFF740FC0722052168
:10298000E369201C93430B43E361A36A2B31934318
:10299000A362236B93432363033A0123FFF7ECFC09
:1029A000201C202104220023FFF7FAFC0F22236CB5
:1029B0001D4893430D3A1343236401211B4AFFF73B
:1029C000A7FA201C10210022FFF716FD201C102161
:1029D0000322FFF71AFD201C10210122FFF71FFD23
:1029E000201C13210122FFF71AFDC321FF20104BE9
:1029F00089005A5882433F3802435A50802252017C
:102A00001A60043958580B4A0240C020000402439F
:102A10005A508022D20000201A6010BD08520010C7
:102A200000020440A452001000010440645200104F
:102A300000E100E0FFFF00FF70B52E4E2E4C301C71
:102A40002E4A0721FFF764FA201C2D49FFF7D6FB19
:102A500007220321E369201C93430B43E361A36A2C
:102A60000D319343A362236B022593432363033AFF
:102A70000123FFF781FC0021201C0B1C0422FFF71F
:102A80008FFC0F22236C301C93432B4323640621BD
:102A90001C4AFFF73DFA201C10210022FFF7ACFC76
:102AA000201C10210422FFF7B0FC2A1C201C10213E
:102AB000FFF7B5FC2A1C201C1321FFF7B0FCC32133
:102AC000114A89005058114B0340C02000020343B3
:102AD00053508023C0209B011360043953580006D3
:102AE0001B021B0A0343535080231B010020136069
:102AF00070BDC046000004400002004800520010B3
:102B0000405200109C52001000E100E0FF00FFFF67
:102B100008B50248FFF782FE08BDC04654050020F4
:102B200008B50248FFF7C8FE08BDC046540500209E
:102B300008B50248FFF772FE08BDC04660050020D8
:102B400008B50248FFF7B8FE08BDC0466005002082
:102B500024224243F0B51E4E1E4933688A189569F7
:102B60001C1E1DD1326031E024225F684243002FD9
:102B70001BD08E183E608B50221C77605E60242430
:102B800044430F590C19BE69AE19A661BC69A61B56
:102B9000141CBE6101221B68002B15D0002A13D122
:102BA0009A69AD1A002D04DCDEE78C508A18626049
:102BB000E5E700221E689642EDD1243242438A188E
:102BC00053601A609561E5E7014B1C60F0BDC0469B
:102BD000B80700206009002024225043104B30B574
:102BE0001C186268C158002A0AD10E4D29600029BC
:102BF00015D08D69A4694A602C198C61C2500EE011
:102C00001160002901D1616009E0C158A5694A60DD
:102C1000C1588A6952198A610022C250626030BD6F
:102C200060090020B80700201E4A70B51E4D1368C9
:102C30002C6801331360002C33D0A369012B02D917
:102C4000013BA3612DE00023A361A669002E28D1DA
:102C5000631CDB7F002B0BD06069FFF7BDFF0123F6
:102C60006169124A8B40116866739943116015E0DF
:102C7000237B002B05D16069FFF7AEFF022363734E
:102C800009E0012B0DD16069FFF7A6FFE3696069D8
:102C9000A361FFF75DFFA368206998472C68002CAB
:102CA000D3D170BDB0070020B8070020B4070020C2
:102CB000017830B5002918D1C0250D4B0D4A196097
:102CC0000D4B0E4C5A60226A2D061202120A2A433C
:102CD0002262072299601A60236A1B021B0A2B4397
:102CE0002362074B196001230370002030BDC046EA
:102CF000B8070020FF7C000010E000E000ED00E0DD
:102D0000B4070020F7B50193154B009200249842B8
:102D100024D9144D2A680123171CA3401F4019D140
:102D20002426664313432B600F4B02229D192973FF
:102D3000FA216C616A738900FFF756FA431CAB6194
:102D4000009BE861AB60019B6F602B61064B013417
:102D5000F75003E00134082CDDD10024201CFEBD17
:102D6000E7030000B4070020600900202423013895
:102D70004343094A10B5D3181C1C597B083401225F
:102D8000022906D1D969627189189961FFF7E0FEBD
:102D90000022101C10BDC04660090020F8B50025B7
:102DA000041C2E1CB700E05900F055F8E359013619
:102DB000DA69012393401D43231C39331B789E425B
:102DC00002D20028EED00EE000280CD1231C25866C
:102DD0003A331B78002B06D0A06A00F07BFFA36A71
:102DE00038345B7B2370F8BD70B5041C0025231CB0
:102DF00039331B789D420ED2AB00E358E26A1E695C
:102E00006B00995A301CFFF7D3F9618E301CFFF725
:102E1000C3F90135EBE72368218E1868FFF77EF9C7
:102E200070BDF8B50F1C041C0368111C1D68836A73
:102E3000281C1E68FFF766F9301C391CFFF7BFF924
:102E4000E36A301C598AFFF7B8F901233834227835
:102E500093406B62F8BD70B5041C406900F096F8B1
:102E6000061E012E44D0231C2D331B78002B06D0C8
:102E7000231C2C331978E068A268FFF749F8627EBA
:102E80002068E169FFF755F9231C2E331B78002BCE
:102E900003D02068E169FFF751F9A36A012B0DD136
:102EA000636820695A7851071207C90FD20FFFF7DC
:102EB00065F9A27E2068E169FFF748F92069616839
:102EC000FFF754F9257E0026012D11D12069216AD2
:102ED000FFF762F92068E169FFF724F9616A206968
:102EE000FFF766F9E16922688D4093691D4395619A
:102EF000301C70BD08B50069FFF75AF908BD08B568
:102F00000069FFF749F908BDF0B50278417853B27E
:102F10008901002B15DA0F23D4B22340083B194D49
:102F20009B089B005B1903252C40AC40FC352F1CF3
:102F3000A740DE690D40BE43A540311C2943D9613D
:102F400014E0114C9B089B001B19C024A4001E59BF
:102F500003241440E700FF24251CBD400C40AE4371
:102F6000BC40311C2143C024A40019518378002B9C
:102F700006D01F231A401E3B93401A1C024B1A60B6
:102F80000020F0BD00ED00E000E100E010B5837B23
:102F9000002B15D1041C017B0068FFF79BF8617BB7
:102FA0002068FFF7A3F820686168FFF785F8A36839
:102FB000002B03D02268D16A0B43D3620123A37391
:102FC000002010BDF8B5037D041C022B2ED1C06873
:102FD000A168FFF739FA251C00262B6803CBFFF701
:102FE0008DFA2B6803211868FFF7C9FA2B681B7A42
:102FF000002B08D1301C012210308240E3680433DA
:10300000D96F0A43DA67F1B22069FFF7D6FA0023D5
:1030100004CD1F1C5372012E01D00126DDE7637D14
:10302000BB4202D0E068FFF72BFA2775207DF8BD80
:1030300010B5094B1C685A7A0023934204D3181E1A
:10304000904207D1FF2005E0D900615C8142F6D0B3
:103050000133F2E710BDC04618070020074B5A683D
:10306000936B002B01D0064B00E0064BD06C181A76
:10307000C0239B00C01800097047C04618070020F5
:10308000000D0110000A01100A4B30B55B680A4AB6
:103090009D6B0A490A480B4C002D05D11A651A642C
:1030A000D96358649C6404E019651964DA635C644C
:1030B000986430BD18070020000A0110000D0110AF
:1030C000FF0C0110FF0F01100022034B5B68DA6553
:1030D0001A665A669A667047180700200E4B30B57C
:1030E000596800240A1C70328023E34003405D1EAF
:1030F000AB4101345B42136053609360D360103284
:10310000042CF1D10B1C7131B033FF31012252423A
:1031100004C38B42FAD130BD1807002038B50A4BE2
:103120005C68A36DE26C1D010133A365AD18FEF769
:103130007DFE0122211C281C5C31131CFEF790FE31
:10314000FEF77EFE38BDC0461807002038B5041CC7
:10315000084BFF3CC518FEF769FE201C013C01210D
:10316000FF3CFEF7ABFEFEF76BFEAC4201D0002841
:10317000F1D038BD01FCFFFF031C01200C2B06D948
:103180000C3B00180E2B02D901300E3BFAE77047BA
:10319000F0B5694B85B05C680393A36B002B01D03D
:1031A000664B00E0664B00930023FF22A365853346
:1031B000FF33E250FE3A043BE250BC22236D920002
:1031C0009B182365039B5D68FEF730FE291C0122D6
:1031D0005C31286DFEF788FEFEF732FEC022031C2C
:1031E000019052009B060BD5E96C2B6D002902D192
:1031F000191C1031E96400998B4210D1042306E0B8
:10320000EB6D013305D0AB6D0133AB650223AB50E1
:1032100007E02B6D00998B4201D10421A950103B8E
:103220002B65C0235B00E358012BCBD0E36C002B54
:1032300025D1236D1033E36421E02027019B1F403B
:1032400055D13D4B5E68331C5C335A781878029236
:10325000FFF7EEFEC2235B00FF2845D0C200B51881
:103260002968F05000293CD1029BDB090DD1236D68
:10327000009A934249D1C02304225B00E250C0234C
:103280005B00E358042BD8D153E0336D02982B60D8
:1032900001312B79400607D502980B432B7107317A
:1032A000C00601D50B4300E08B432B71224B1B68FA
:1032B0009A185068FFF760FFB36D834202D12B79F3
:1032C000022205E02B790222D90701D5934300E0C1
:1032D00013432B71C223FF225B00F2500023B3651E
:1032E000C5E7FF22F25000E0F050B765BFE7C22209
:1032F0005200A358FF2B03D00121DB004942195192
:10330000FF23A3500023A365B1E7039B5D682B6DEA
:10331000103B2B65FEF78AFD291C286D5C310122CC
:10332000FEF7E2FDAB6D0133AB65FEF789FD019061
:10333000A5E705B0F0BDC04618070020000E01103B
:10334000000B011038B5074B051C5C68FEF76EFDDD
:103350000122211C281C5C31131CFEF781FDFEF7A5
:103360006FFD38BD1807002038B50D4B5D68FFF7BD
:103370008BFEA86C2C1CFFF7E9FEFC3400280BD157
:10338000FFF7A2FEE86B3030FFF7DCFF002803D127
:10339000FFF7FEFE0A2300E00923A36738BDC046FD
:1033A00018070020274BF0B55F68C62385B05B0087
:1033B0000E1C0390F9580B2A0AD90C3A141C8C3BAA
:1033C000FF3B0D2C02D901330E3CFAE7023401E039
:1033D0000023141D102200251B01121B5B180292F2
:1033E0000193FEF723FD391C01985C310122FEF7A1
:1033F0007BFDFEF725FD844600281FD12A1C331CC7
:10340000611B51185C31795C0398013B815402992E
:103410000132C918B14203D0002BF1D11E1C05E0C6
:103420000E211E1C151C02918B4201D8151C029303
:10343000019A022410320192002BD2D1604605B0CD
:10344000F0BDC04618070020F0B5794D85B06E6814
:10345000341CFC34A36F581E072800D99FE001F0EC
:1034600095FE045F899E1C697E92BE236C685B009A
:10347000E7586A7AFB00E3180192019A974200D15B
:10348000B9E01968002905D0062218790240022AFD
:1034900000D1BBE001370833EFE7BE236C685B0067
:1034A000E358E06B0193FFF74DFF231CFC330393BC
:1034B00000282DD1636D013302936365019BDF000A
:1034C0002B68DB195868FFF757FE029B834203D035
:1034D000E3191B79DB0713D40421E21913790B4399
:1034E0001371231C0122FC339A67029AE36B8A4012
:1034F0001033E3639B1AE351019B013301930AE00C
:10350000236C10332364E36B1033E363022300E086
:103510000923039A9367BE23019A5B00E25061E09E
:10352000FEF784FC311C306C5C310122FEF7DCFCC0
:10353000052356E06C68FFF7C7FD206C271C203080
:10354000FFF700FFFC370923002806D10123A26BF7
:103550005340A363FFF798FD0723BB6742E06C6805
:10356000FFF7B2FD206CFFF7EDFEFC3403230028CB
:1035700036D136E06C68A06CFFF7E8FDFC34082318
:1035800000282DD12DE06C68FFF79EFDE06BFC3428
:103590003030FFF7D7FE0A23002821D121E06C68E4
:1035A000FFF792FDE06B1030FFF7CCFE002816D13C
:1035B000231C04211A7901308A431A716A7A08336C
:1035C0009042F6D1BE2300225B00E250231C013260
:1035D000FC339A67E36B0133FF33E36302E0FC34AF
:1035E0000923A367331CFC339B6F093B012B00D9D4
:1035F0002EE705B0F0BDE36BE364236D2364FFF7B2
:1036000043FD231C0622FC339A6784E700232164D0
:103610006365FEF70BFC211C0122206C5C31FEF778
:1036200063FC231C0522FC339A67019773E7C046AD
:1036300018070020F8B5264F051C7C680E1CFC34CA
:10364000FFF722FD012E36D1A5677D682C1CFC34C6
:10365000A36F042B02D0052B10D018E02020FFF719
:103660003DFDFEF7E3FB291C1A487031FEF74CFCC8
:10367000FEF7E6FB0523002815D013E0FFF724FD35
:103680001548FFF75FFE0A2300280CD00AE0686C9B
:10369000FFF75CFD002805D1A86CFFF757FD042358
:1036A000002800D00923A367A36F093B012BCDD8C5
:1036B000FFF76EFD0AE0022E05D1A567FFF768FD52
:1036C000FFF7C2FE02E0FFF763FDA567F8BDC04645
:1036D00018070020000A0110300D011008B5074A34
:1036E000917A5368012905D10022081C9A63FFF7DB
:1036F000A1FF02E00922FC339A6708BD18070020E9
:10370000F8B5071C104B0D1C5C68161CFFF7BCFCC1
:10371000381CFFF7E3FCFEF789FB211C7031012EFA
:1037200001D1E06B00E0206CFEF7EEFBFEF788FBBA
:10373000FC34002805D1A567FFF72AFDFFF784FEBA
:1037400001E00923A367F8BD1807002008B5194B4D
:103750005B681A1CFC32D26FAD2A16D005D80D2A30
:103760001DD02D2A23D100220BE0D22A08D0DA2A3C
:1037700010D0D02A1BD1002220209A63032113E00D
:1037800001229A63FFF7F0FD13E000200721986300
:10379000012209E0012200209A63072104E00122AE
:1037A00020209A6303210022FFF7AAFF01E0FFF720
:1037B00095FF08BD18070020F0B5814E87B07368EB
:1037C0000391059201930090FFF732FC3368C40027
:1037D0001D1902906868FFF7CFFC0490FFF73EFCCC
:1037E000049B371C984219D2337B0620012B00D052
:1037F000E4E0019E0333FC36B367FFF725FE6868FB
:10380000FFF7BAFC051CFFF729FC031C0520AB429F
:1038100000D2D3E0B36F0A2B00D0CFE00025019B8C
:103820009D65059B012B29D17D686A462B1C12786A
:103830005C331A7080225A702A1C02336C32FF21CA
:10384000197001339342FAD1FFF768FC0226EB6C42
:10385000002805D129190A7932430A712B5105E054
:10386000029AD200AA181179B143117101212C19C1
:10387000227910338A432271EB649CE00098FFF7B1
:10388000D7FB3A687C68C300D3185E68231CFC33FE
:103890005D67C42301225B000190E250C4235B00FA
:1038A000E258022A02D0032A2DD048E0FFF736FC66
:1038B000002870D17B6869461A1C1D1C09785C328F
:1038C00011706C354021AC4651700232191CFC312C
:1038D000486FB04206D2039D285C1070486F0130DB
:1038E000486704E0FF2103201170893158500132EC
:1038F0006245EBD11A1CFC32526FB24246D3C4224D
:103900000321520041E0FFF709FC002843D1019B4D
:10391000E26CDB001A510322E31819790A431A7189
:10392000274A0821D07A1A79012801D10A4300E0F8
:103930008A431A71C42300225B00E25026E0022170
:103940007A68D150C023151C00991B020B43D36524
:103950006C35131CAC466033111CFC31486FB0420F
:1039600006D2039D285C1870486F0130486701E05B
:10397000FF21197001336345EED1131CFC335B6FDB
:10398000B34203D3C42303215B00D150C4235B00A3
:10399000E058002882D1A36DE26C1B01D318E364C8
:1039A000002808D00122019BDF00E419237913438A
:1039B000921893432371431E9841C0B207B0F0BDE3
:1039C0001807002038B50E4B5D68FFF75DFB2C1C17
:1039D0000423FC34A367FFF7DBFBA86CFFF7B6FBFF
:1039E00000280AD1FFF770FBE86B3030FFF7AAFC24
:1039F000002802D1FFF728FD01E00923A36738BDA5
:103A000018070020F0B5037A85B0041C002B00D104
:103A10000AE100264268002302250127F1005350E5
:103A2000511808790136A8433843F23738400871F5
:103A3000617A8E42EFD3C22149005350043953506A
:103A4000BE20111C1F1C1E1CFC3140008B67CB6765
:103A50001350D366936513651364D363D3645365BE
:103A60004B679363724A77381189FF38814311811C
:103A700011890D4315816F4A009352680392009B90
:103A80005B000093B30801936A4B5B681D1C0293B3
:103A9000FEF7CCF93020019B5C355843664B291C5E
:103AA000F3181818019B01229B00C01A0001FEF7B1
:103AB0001BFAFEF7C5F9002800D0B0E0029B021CFB
:103AC0006C339C462B68002B01D1013203E001339B
:103AD00059425941401804356545F3D1042871D045
:103AE000042A00D09BE00136082EC8D1039B009A1F
:103AF000FC33DA674F4B5B681A1CFC32032F02D190
:103B0000DD23D36788E0012F04D10F23D16F0B4051
:103B1000D02105E0022F08D1F023D16F0B400D21F9
:103B20000B43D367FFF712FE42E0D16F2E290CD072
:103B300005D820290DD000222A2915D011E02F29DF
:103B40000BD00022A02916D00BE000210A20996397
:103B500023E0002203209A6315E00022301C9A63C0
:103B600011E0A22911D101229A63FFF72BFF1FE078
:103B700001220A2931D19A63072004E0F2292CD1CD
:103B8000012208209A63022107E0A2291FD9E22915
:103B9000F4D101220A2000219A63FFF74BFD07E0D0
:103BA000AF2939D10020072101229863FFF7A8FD32
:103BB0006368FC339B6F0A2B01D1002300E00123D3
:103BC000237231E00123009A1A4300928BE7022905
:103BD000CED1012203209A63DFE7F02904D100222D
:103BE00020209A630321E1E7F02907D80F29D7D1D4
:103BF000012220209A6303210022D7E7FA2904D169
:103C0000012200209A630721D0E7FF2904D1002276
:103C100001209A63011CC0E7FFF760FDC8E701239C
:103C2000019A93401F435EE7207A05B0F0BDC0467D
:103C30000000054018070020A010000108B5064B41
:103C40005B68FC339A6F05230A2A03D10022FFF731
:103C5000B3FDC3B2181C08BD18070020F7B5154EF8
:103C60000D1C746801921F1CFFF7E2F9211C3268D9
:103C7000FC31C300896FD218526805200A2917D178
:103C8000E919914214D8E21812790238D1070FD5F8
:103C9000013892070CD51A59C6235B00E2500198EF
:103CA000391C2A1CFFF77EFBC0B2431E9841C0B2EC
:103CB000FEBDC04618070020054B03205B68FC339F
:103CC0009B6F0A2B03D00238092B00D003307047BA
:103CD0001807002010B5041C8068FFF757F9012869
:103CE00013D020686168FEF765FA20682169FEF745
:103CF00064FA237B0020012B07D1A268647B126841
:103D0000A340116A19431162536210BD10B5041C1F
:103D1000017B021D0068FEF7FBF82068217B627BB7
:103D2000FEF755FA002010BD70470378002B01D133
:103D3000013303700020704730B585B001A8021C24
:103D4000034B32CB32C2FEF795F905B030BDC04609
:103D500078530010437D094A9B009958002330B5E1
:103D60004468827D934207D29A00A25801331568B5
:103D70000A1CFC325561F4E730BDC0468453001084
:103D800038B50D4D0D4C281C0021FEF7F8FB201C0A
:103D90000021FEF7F4FB0122281C0021FEF7F6FBB0
:103DA000201C0121FEF703FC201CFEF7FAFB201C5F
:103DB0000321FEF7E4FB38BD000803480004034874
:103DC0008021437D044A9B009B5849040833DA6FE5
:103DD0000A43DA677047C046845300108021437D50
:103DE000044A9B009B588900FC339A680A439A60F6
:103DF0007047C04684530010C3681A7A002A0AD05C
:103E0000027D032A07D11A681F23134001229A401A
:103E1000131C014A1360704700E100E00369F7B525
:103E20001B78061C022B00D0A3E00120FEF7C8F887
:103E300000230093984208D1737D4F4A9B009B5802
:103E40000833DB6FDB01DB0F00934C48F468757DB2
:103E5000FFF7B8F8484BAD00ED580190A37D002264
:103E6000281CE168FEF728FB281C2169FEF7B4FB3B
:103E70002B1C0327FC339968207DB94399609A680D
:103E800002439A60237A002B35D021686068CAB259
:103E9000800153B28446002B14DA0F2317401340DD
:103EA000FF22083B36499B089B005B18111CFF0052
:103EB000B940D8698843614611400A1CBA40104392
:103EC000D86114E02F4A9B089B009B18C0229200E7
:103ED0009858FF223940171CC9008F40B8436746E5
:103EE00017403A1C8A401043C02292009850617DCE
:103EF000281CFEF7A1FB009B002B08D1737D1E4AF6
:103F00009B009B58204A0833D96F0A40DA67002586
:103F1000FFF736FFB3689847F37D0093009AEBB242
:103F2000934219D23268AB009C58134F237A617ABE
:103F30009B00D8592268FEF789FBA020237A61688C
:103F40009B00DA59236809689B7880001B079B0E49
:103F50001B1899500135E1E7301CFFF74DFF301C6D
:103F6000FFF7F8FE301CFFF72BFF6A463369127922
:103F70001A7033691878FEBD84530010F4060020CF
:103F800000ED00E000E100E0FFFFFFFE08B50348A0
:103F90000A210422FEF792FB08BDC0460004034834
:103FA00008B52248FFF7C1FE00283ED12048FFF7A0
:103FB000ADFE002839D11F48FFF7A8FE002834D1F4
:103FC0001D48FFF7A3FE00282FD11C48FFF79EFED7
:103FD00000282AD11A48FFF799FE002825D1194850
:103FE000FEF794FB002820D11748FEF78FFB00282E
:103FF0001BD11648FEF75CFE002816D11448FFF7C7
:1040000001FD002811D11348FFF708FF00280CD14B
:104010001148FEF779FF002807D11048FEF774FF1A
:10402000002802D10E48FEF7B9FE08BDBD070020EA
:1040300058530010385300106853001048530010B4
:10404000285300105405002060050020BC07002004
:104050001807002098530010B0520010B3520010FF
:104060006C050020F7B5FFF79BFFDF4B041E1870AF
:10407000019300D0FEE7FDF719FCFDF749FCFDF7C1
:104080007DFCFDF7CDFCFDF7EFFAD84B18601F1C47
:10409000032835D1D64B1A78597812028A18D54997
:1040A0000A809A78D97812028A18D3490A801A7934
:1040B000597912028A18D1490A809A79D97912025B
:1040C0008A18CF490A801A7A597A12028A18CD4979
:1040D0000A809A7AD97A12028A18CB490A801A7B06
:1040E000597B12028A18C9490A809A7BDB7B12022B
:1040F0009B18C74A1380C74B1C80C74B1C8001E02C
:10410000FDF7D4FBFDF7CCFA3860032834D1C34B5C
:10411000C34A197811705978C24A11709A78D978BF
:1041200012028A18C0490A801A79597912028A182B
:10413000BE490A809A79D97912028A18BC490A8044
:104140001A7A597A12028A18BA490A809A7AD97A5E
:1041500012028A18B8490A801A7B597B12028A18FF
:10416000B6490A809A7BDB7B12029B18B44A138003
:104170000122B44B1A7001E0FDF7CAFBFDF7ACFA5F
:104180003860032845D1A54BAF4A1978117059788A
:10419000AE4A11709978AE4A1170D978AD4A117053
:1041A0001A79597912028A18AB490A809979DA7911
:1041B00009025118A94A89B211801A7A587A120252
:1041C0008218A74892B20280987ADC7A00022018FE
:1041D000A44C2080187B5C7B00022018A24C20801D
:1041E000987BDB7B00021B18A0480380A04B198042
:1041F000A04B1980A04B1980A04B1980A049130A2D
:104200000B80A049D2B20B809F4B1A809F4B1A8023
:1042100001E0FDF7B3FBFDF77BFA3860032831D1ED
:104220007E4B9B4A1978117059789A4A11709A7886
:10423000D97812028A1898490A801A795979120293
:104240008A1896490A809A79D97912028A1894496B
:104250000A801A7A597A12028A1892490A809A7A3E
:10426000D97A12028A1890490A801A7B597B120265
:104270008A188E490A809A7BDB7B12029B188C4A33
:10428000138001E0FDF7CCFBFCF774FFFDF7F8FBB2
:104290006423724A87481380754A01211380754A46
:1042A0001380754A1380754A1380834B834A1380A9
:1042B000834A1380834A0023FEF724FD002801D09F
:1042C000FEF754FDFA20012180007F4A0023FEF70B
:1042D00019FD002801D0FEF749FD7C4801217C4AE8
:1042E0000023FEF70FFD002801D0FEF73FFD794BBC
:1042F00019681A7B0123181C9040774A486011689E
:10430000127B764893404B60FFF768FD744D754C07
:10431000281C211C0122FEF775FA2E1C0028F5D15D
:10432000AA68537E002BFCD16F4A704B117800298C
:1043300008D11978002900D003E121784C2900D058
:10434000FFE016E001290AD11978012900D0F8E030
:104350002178492900D0F4E047391170F5E00229AD
:1043600009D11978022900D0EBE021784E2900D03C
:10437000E7E04B39F1E7032908D11978032900D088
:10438000DFE0042313702278594BD8E0042908D1C8
:104390001978032900D0D4E0052313702278554BF7
:1043A000CDE0052908D11978032900D0C9E00623FA
:1043B00013702278504BC2E0062908D119780329DE
:1043C00000D0BEE00723137023786370BEE0072996
:1043D00000D093E01978032900D0B2E008231370CD
:1043E0002378A370B2E0C046180C0020140C002003
:1043F000800800202608002098080020EA070020F6
:10440000A408002032080020F6070020EC07002056
:10441000240800200E080020F20800203B0800209D
:104420003A0800202C0800205408002050080020E2
:10443000E408002030080020AE0800202A080020F0
:104440004C080020C4070020560800203608002031
:104450007C0800200C0800209A0800204E0500204F
:1044600090080020A80800202E0800207E080020C8
:10447000E607002038080020F60800203408002055
:1044800028080020E20800201408002096080020D8
:104490004E08002010080020EE070020EE08002043
:1044A0005808002094080020A2080020C20700201D
:1044B0005C09002040420F00FF0700009C0800201C
:1044C000B0080020C51D0010A91C0010204E0000DF
:1044D000B91C0010685300102853001098530010A6
:1044E000600500201A080020C007002016080020E0
:1044F000E60800200D08002022080020082907D126
:10450000197803291DD1092313702378E3701DE066
:10451000092907D11978032913D10A2313702378A5
:10452000237113E00A290CD11978032909D12178C4
:10453000FF2906D10021117001221970D14B1A7088
:1045400004E000211970CF4B11701970CD4B1D780C
:10455000012D00D0DAE6CC4B1978CC4B1A78CC4B35
:104560008A424CD01B78542B06D0552B26D04F2B8B
:1045700001D000F020FD6BE06378052B01D000F046
:104580001AFDA378052B01D000F015FDE378342B3C
:1045900001D000F010FD2379782B01D000F00BFD45
:1045A000FCF72AFFBB4B1D70BB4B197B1A6880239D
:1045B0005B028B40B9495360742385E06378032B19
:1045C00001D000F0F8FCA378032B01D000F0F3FC3D
:1045D000E378F52B01D000F0EEFC2379C52B01D058
:1045E00000F0E9FCFCF708FF0022AA4BAB491A7067
:1045F000A94B1A681B7B9D407523556064E01878B1
:104600003338202801D900F0D6FC00F0C9FD7B0327
:104610009501E001D404E20208038B02D404D4041F
:104620002F02D404D404D404D40424002700D404D6
:10463000D404D4042A003D00710086004C00AA0076
:10464000CC00FE00DE00210029017F014F00630045
:10465000FCF7B0FDEEE0FCF7D5FDEBE0FCF7FAFD72
:10466000E8E06378A2781B02D3188D4A1380E378C0
:1046700022791B02D3188B4A1380FDF777FAFDF7D6
:104680002FFAFCF70FFED5E06378A2781B02D3184F
:10469000854A1380E37822791B02D318834A13805A
:1046A000FCF728FEC6E0FCF7A7FEC3E0FCF7A4FE7B
:1046B0000122784B1A70784B197B1A6880235B02B1
:1046C0008B405360722375494B71794B1B881A0AD2
:1046D0008A719EE2FCF790FE00226E4B1A706E4BC0
:1046E000197B1A6801238B406C4953607323EBE7F5
:1046F0006378A2781B02D3186E4A1380E37822797C
:104700001B02D3186C4A1380FDF76AFAFDF72EFAE4
:10471000FDF7E6F9FCF720FE8CE06378A2781B0237
:10472000D318664A9BB21380654A66481380664A6E
:104730001380664A1380664A1380E2782379110257
:104740005918018063490A8063490A80634A1380CB
:10475000634A1380FDF70AFAFDF7C2F9FCF724FE5D
:1047600068E06378A0785F4D5F4A98420ED12B884D
:104770009C46E37824791B021B199C4506D11070D6
:1047800030225A4B1A80FCF757FE53E0117000227A
:10479000564B1A80FCF730FE652340498B71613B14
:1047A000CB712B8838E24522504B1A806378A2786F
:1047B0001B02D3184E4A1380E37822791B02D318C8
:1047C0004C4A1380FCF764FE34E0FCF74DFF334C99
:1047D000386003280FD1484A137851781B02CB1850
:1047E00033490B809378D2781B02D3183D4A13804B
:1047F000FCF7B2FE2EE1FCF7FFFD6523A3715B3BE6
:10480000E3713B782372002323E1FCF749FF386012
:10481000032815D1394A3A4B1178197053781B493E
:104820000B70FF219378D2784B43D318354A13800D
:10483000FCF764FE344B301C1A78184900F0B9FBC1
:10484000FCF7DAFD652315498B715A3BCB713B7838
:104850000B7200234B722C4B301C1A7800F0A9FB12
:10486000FCF73AFF0D4C3860274D032803D1FCF7C5
:104870009BFE042354E0FCF7BFFD6523A371383B86
:1048800055E0C046A0080020E60800202C080020C3
:10489000220800206A07002028530010FC0700208F
:1048A0009C080020B0080020EE08002058080020D6
:1048B000260800204C050020480500204E05002059
:1048C000E60700209008002038080020F6080020A5
:1048D0003408002028080020E208002014080020E6
:1048E0009608002098080020C40700201C0C002017
:1048F0000E080020F2080020800800203B0800205D
:104900003A080020540800204A050020FCF700FF68
:10491000C94C3860C94D032804D1FCF745FE052376
:10492000A371F5E0FCF768FD6523A371503BE371CB
:104930003B7823720023EAE0C14BBF4D1B88472B15
:104940003AD1C04BA278198863781B029B18994210
:1049500032D1BD4B22791988E3781B029B1899420A
:104960002AD1FCF79DFE386003281DD1B74AB84B09
:1049700012781A70B74A12785A70FCF709FFB64CD1
:1049800080B22080032805D1FCF736FD6923AB7186
:10499000053304E0FCF730FD6523AB715E3BEB7142
:1049A0003B782B722388FFE2FCF726FD6523AB7171
:1049B0005D3BEB713B7807E0FCF71EFD6523AB71B7
:1049C0005C3BEB719E4B1B882B720023ECE29C4BF3
:1049D0001B88662B41D19B4BA278198863781B02F8
:1049E0009B18994239D1984B22791988E3781B0298
:1049F0009B18994231D1FF23974D2B80FCF734FE51
:104A00008D4C386003281BD18E4B1A88934B110AAA
:104A10005A708D4A19701288110ADA709970FCF771
:104A200093FE2880FCF7E8FC6923A3710533E3714A
:104A30003B788B4823722B886372804B1A7869E02D
:104A4000FCF7DAFC6523A371543BE3713B782372D6
:104A50002B886372794B1A785BE0FCF7CDFC6523F9
:104A600075498B71533BCB713B786BE0754BA278EA
:104A7000198863781B029B1899425BD1724B22798B
:104A80001988E3781B029B18994253D1754A704BE1
:104A900012781A70744A12785A70744A12789A709E
:104AA000734A1278DA70734A1288110A5A71724A7C
:104AB00019711288110ADA71704A99711288110AF3
:104AC0005A726F4A19721288110ADA726D4A997213
:104AD0001288110A19735A736B4A574C1288574D32
:104AE000110ADA739973694B1A88BA231B019A4227
:104AF00012D9FCF793FE584B1880FCF77DFC692314
:104B0000A3710533E37100232372534B1B88637237
:104B10002A78301C211C4CE2FCF76EFC6523A37143
:104B20001A3BEFE7474BA278198863781B029B1862
:104B300099420BD0FCF760FC65233F498B71493BE0
:104B4000CB7100230B72444B1B8883E63E4B2279CA
:104B50001988E3781B029B189942EBD14C4A3C4BD5
:104B600012781A704B4A12785A704B4A1288110AFE
:104B7000DA704A4A99701288110A5A71484A1971B2
:104B80001288110ADA71474A99711288110A5A7209
:104B9000454A19721288110ADA72444A99721288C7
:104BA000110A5A73424A19731288110A9973DA73F7
:104BB000364B214C1A88BA23204D1B019A4202D948
:104BC000FCF750FE97E7FCF717FC6523A3714A3BFF
:104BD00098E71B4D2B88302B25D11A4BA2781988CA
:104BE00063781B029B1899421DD1174B22791988B3
:104BF000E3781B029B18994215D147232B80154B54
:104C0000124A1B781370FCF7F7FB69230A498B7172
:104C10002B88CB710C4B1B881A0A0A721AE6084BB8
:104C20001B88452B46D0FCF7E7FB652302498B71B7
:104C3000034B1B88EDE7C046FC0700204A05002017
:104C40001C0C002026080020980800202C080020BA
:104C50003B080020C4070020200C00208008002012
:104C60006005002056080020360800207C0800203F
:104C70000C0800209A0800204E0500209008002013
:104C8000A80800202E0800207E080020F807002039
:104C90004E08002010080020EE070020EE0800203B
:104CA0005808002094080020A2080020C207002015
:104CB0005C090020C2496378A2781B0208889B180F
:104CC0009842B0D1BF4DE37822791B0228889B1807
:104CD0009842A8D16623BC4A1380BC4B1B880B802A
:104CE000BB4B1B882B80FCF787FB6923B9498B7171
:104CF000B54B1B88CB712B881A0A4B72B64B0A72C4
:104D00001A7832E1B54BB34D1B78FE2B00D042E14F
:104D1000AB4B1988B24B994200D03CE16378A27842
:104D20001B029B188B4200D035E1A64B1988AD4B76
:104D3000994200D02FE1E37822791B029B188B4225
:104D400000D028E1019B1B78002B00D019E1BA228A
:104D5000A54C12012388934200D808E1FCF762FCBD
:104D6000FCF7A4FD964B1A88A04B110A5A70954A7D
:104D700019701288110ADA709D4A99701288110A06
:104D80005A719C4A19711288110ADA719A4A9971FA
:104D90001288110A5A72994A19721288110ADA7223
:104DA000974A99721288110A5A73964A197312888F
:104DB000110ADA73BA22997323881201924C934232
:104DC00002D9FCF7C1FC2080FCF7A2FD8F4B904E6E
:104DD0001B7833708F4B1B7873708F4B1B881A0AAC
:104DE000F3708E4BB2701B881A0A73718C4B327140
:104DF0001B881A0AF3718B4BB2711B881A0A7372E3
:104E0000894B32721B881A0AF372884BB2721B8864
:104E10001A0A7373864B32731B881A0AB273F373C0
:104E2000714B844D1A88BA231B019A4202D9FCF7B0
:104E3000AFFC2880FCF7A2FD7F4B1B7833707F4BC3
:104E40001B7873707E4B1B78B3707E4B1B78F370AE
:104E50007D4B1B881A0A73717C4B32711B881A0AAE
:104E6000F3717B4BB2711B881A0A7372794B3272E1
:104E70001B881A0AF372784BB2721B881A0A737372
:104E8000764B32731B881A0AF373574BB2731A8826
:104E9000BA231B019A4203D9FCF7C0FC704B18805F
:104EA000FCF7BEFD6F4B1B7833706F4B1B78737034
:104EB0006E4B1B881A0AF3706D4BB2701B881A0A6E
:104EC0003271DBB26B4A7371F3716B4B12881B88C2
:104ED000120AB27173721A0A684B32721B881A0A6C
:104EE000F372674BB2721B881A0A7373654B327385
:104EF0001B881A0AB273F3733B4B634E1A88BA23AA
:104F00001B019A4202D9FCF7ADFC3080FCF764FC2F
:104F100023883860032B13D1FCF76EFA0C222E4B3A
:104F20002C491A7069238B712388CB712B880B72E3
:104F30004B4B1B884B7233888B72FF23CB7214E070
:104F4000FCF75AFA0D22244B22491A7065238B7103
:104F5000563BCB7123880B722B884B72404B1B88BE
:104F60008B723388CB72FF230B73484821E0FCF728
:104F700043FA6523AB710D33EB71423B2B72033364
:104F800012E0FCF739FA6523AB710D33EB71423B4C
:104F90002B72023308E0FCF72FFA6523AB710D3357
:104FA000EB71423B2B720133301C291C6B720A4B94
:104FB0001A78FDF7E7FB0022354B1A70FFF7A6F9C8
:104FC00026080020980800201C0C00200E08002055
:104FD000F2080020FC0700204A050020C40700203A
:104FE0007A7B000059580000F80700208008002054
:104FF000EA070020A408002032080020F60700205D
:10500000EC07002024080020220C00203A08002091
:105010003B0800202C0800205408002050080020E5
:10502000E408002030080020AE0800202A080020F4
:105030004C080020200C00205608002036080020D4
:105040007C0800200C0800209A0800204E05002053
:1050500090080020A80800202E0800207E080020CC
:10506000100C00204E08002010080020EE07002041
:10507000EE0800205808002094080020A208002014
:10508000C20700205C0900201E0C002060050020E3
:10509000A008002070477047704770472D4A2E497E
:1050A000137A10B59B0058581368C0229B78920061
:1050B0001B079B0E9B181A58284B294C1A80032358
:1050C00090B222885A438218264892102280027A8F
:1050D000920054580268C020927880001207920E05
:1050E000121812592048214C028090B222885A434B
:1050F00082181F4892102280027A92005458026847
:10510000C020927880001207920E12181259194886
:10511000194C028090B222885A4382181748921084
:105120002280027A920051580268C0209278800052
:105130001207920E1218525811490A80114992B260
:1051400008884343D318104A9B100B8013880133FF
:10515000138010BD1454001084530010A6080020C2
:10516000BE070020BC53001050050020920800200C
:10517000D853001052080020F4080020CC5300102F
:10518000AC08002064070020E808002002B4714643
:1051900049084900095C49008E4402BC7047C0467A
:1051A00003B47146490840004900095A49008E4439
:1051B00003BC70470E4B70B500251E1C0D4CE41A45
:1051C000A410A54204D0AB00F35898470135F8E786
:1051D000FDF78CFA084B00251E1C084CE41AA4109D
:1051E000A54204D0AB00F35898470135F8E770BDED
:1051F0006407002064070020640700206407002083
:10520000000000000100000000000000010000009C
:1052100040520010392A001095500010975000108D
:10522000000000000000000000000000000000007E
:1052300000000000585200100000000404040000A8
:10524000004B0000080801100000000000010440AD
:10525000010000006452001000000440060000003D
:105260009C520010B000000001000000A452001089
:1052700065290010995000109B500010000000009C
:10528000000000000000000000000000000000001E
:105290004C5200100000000404030000B80000009D
:1052A00001000000004B0000080801100000000091
:1052B0000F030100030000000000000000000000D8
:1052C00000000000000000000000000000000000DE
:1052D00000000000000000000000000000000000CE
:1052E00000000000000000000000000000000000BE
:1052F000000000000000000001000000100000009D
:105300000200000010000000030000002000000068
:105310000400000010000000050000001000000064
:105320000600000010000000000004400000000023
:10533000000000000D00000000020440000000001A
:105340000000000007000000000004408000000092
:10535000000001000C0000000002044000000000FA
:105360000000000002000000000004408000000077
:10537000000001000000000000010000000001002A
:10538000000000000004034800080348000000007B
:10539000000000000000000040070020540700202B
:1053A0008D3F0010EC530010500700200300040450
:1053B00001000000000000802400000038540010AC
:1053C0004854001000000000000000004C54001081
:1053D000B45300100004000024540010C8530010FF
:1053E00000010000A00000002100000000000000FB
:1053F0000000000000000000150000008C530010A9
:105400000100000000002D0000000000000000006E
:1054100001FF00000454001020540010000300009D
:105420000000000000002C00000000000000000050
:10543000010200002300000000002B00000000001B
:105440000000000001FF00000000000000002A0032
:0C545000000000000000000001FF000050
:10545C002C488746000000000000000000000000FF
:10546C000000000000000000000000000000000030
:10547C0025488746000000000000000023488746AE
:10548C002348874623488746234887462348874630
:10549C002348874623488746234887462348874620
:1054AC00234887460000000022488746224887464A
:1054BC002248874622488746224887462248874604
:1054CC0022488746224887462248874622488746F4
:1054DC0022488746224887462248874622488746E4
:1054EC0022488746224887462248874622488746D4
:1054FC002248874622488746000000000000000032
:10550C00204887469910001099100010991000102F
:10551C00292C001071110010991000109910001016
:10552C00991000109910001099100010991000108B
:10553C009910001099100010212B0010412B001015
:10554C00112B0010312B0010991000109D500010E1
:10555C00991000109910001099100010991000105B
:10556C00991000109910001099100010991000104B
:10557C00991000109910001099100010991000103B
:08558C009910001099100010A5
:10559400FF7F0900FF7FB000FF0F000000000048FC
:1055A4006C520010940700200002004810520010B2
:1055B40078070020EC0500207C0600204C06002023
:1055C4001C06002000000000000000000000000095
:1055D4000000000000000000000000002C07002074
:1055E400A80500200000D1030000400000040100D1
:1055F400EF01EF019501EF01000000000000000041
:105604000000E10F8800000000000000020000001C
:105614000300030000000000020000000300030078
:105624000000000088000000000000008800000066
:105634000000000000000350C0060020E405002024
:10564400000104403C000350CC060020010100008E
:1056540000000000D1030000EF0100000000000082
:105664000001000000000350C4050020DC050020F8
:105674000000044050000350CC060020010100004B
:1056840001000000D1030000EF0100000000000051
:105694000501000000000350AC060020BC050020FA
:1056A400000004408C000350CC06002001010000DF
:1056B40004000000D1030000950100000000000078
:1056C4000801000000000350D0050020B8060020A7
:1056D40000000440A0000350CC060020010100009B
:1056E40005000000D1030000EF01000000000000ED
:1056F4000901000002000000030003000000000094
:105704008800000000000000020000000300000008
:105714000000000000000350DC0600200000000030
:105724000000000000002003800040000000000092
:1057340000040348B852001001020000E8060020EB
:105744000C070020E052001000000348004003480A
:105754000201000000080348CC52001001020000BE
:10576400F8520010800A0020020600000100000028
:10577400000002007C01035028070020CC06002012
:1057840001000000E10F0000BC530010D8530010CA
:1057940014540010CC53001002000000E453001015
:0C57A400E853001034540010B8530010FB
:0400000510001019BE
:00000001FF
