:020000041000EA
:101000004805002019100010000000009910001081
:1010100000040100000100001149124A124B00F0C7
:1010200018F8124880471249124A134B00F011F881
:101030001249134A134B00F00CF81349134A0020CD
:10104000521A02DD043A8850FCDC114880471148EE
:1010500080479B1A03DD043BC858D050FBDC704727
:10106000949800100C00002044010020F925001085
:10107000CC9900104805002064070020E89B001070
:10108000640700206407002064070020380C00205B
:101090002595001025760010FEE7000080B582B08F
:1010A00000AF78600A1CFB1C1A70FB1C1B78012225
:1010B0009A407B685A60BD4602B080BD80B582B060
:1010C00000AF78600A1CFB1C1A70FB1C1B78802286
:1010D00052029A407B685A60BD4602B080BDC0464D
:1010E00080B582B000AF78607B681A687B681B7B34
:1010F000101C191CFFF7D2FFBD4602B080BDC046D0
:1011000080B582B000AF78607B681A687B681B7B13
:10111000101C191CFFF7D2FFBD4602B080BDC046AF
:1011200080B500AF01F008F901F028FA00F002F8EC
:10113000BD4680BD80B500AF5D4B1B8801339AB2C0
:101140005B4B1A805A4B1B88652B03D1584B0022EE
:101150001A80ABE0564B1B88142B1CD1554BDB6A15
:1011600000221A80534BDB6A00225A80514BDB6A03
:1011700000229A804F4BDB6A0022DA804D4B181C0C
:1011800003F06EFD4B4AE5239B00101C00211A1C46
:1011900003F09EFD8AE0464B1B88282B1ED1454B51
:1011A000DB6AFA2292001A80424BDB6A00225A80E4
:1011B000404BDB6AFA2292009A803E4BDB6A0022A7
:1011C000DA803C4B181C03F04BFD3A4AE5239B00A8
:1011D000101C00211A1C03F07BFD67E0344B1B88B8
:1011E0003C2B1ED1334BDB6AFA22D2001A80314BE2
:1011F000DB6A00225A802F4BDB6AFA22D2009A80E7
:101200002C4BDB6A0022DA802A4B181C03F028FDE5
:10121000284AE5239B00101C00211A1C03F058FDEE
:1012200044E0234B1B88502B1CD1224BDB6A224A03
:101230001A80204BDB6A204A5A801E4BDB6A1E4A0A
:101240009A801C4BDB6A1C4ADA801A4B181C03F08C
:1012500007FD184AE5239B00101C00211A1C03F00F
:1012600037FD23E0124B1B88642B1FD1114BDB6A27
:10127000FA2212011A800F4BDB6AFA2212015A80FD
:101280000C4BDB6AFA2212019A800A4BDB6AFA22C3
:101290001201DA80074B181C03F0E2FC054AE52333
:1012A0009B00101C00211A1C03F012FDBD4680BDDE
:1012B0006A07002080050020B80B000080B500AF51
:1012C000BD4680BD80B500AF124B0B221A70124B89
:1012D00001221A70104B02225A700F4B03229A708F
:1012E0000D4B0422DA700C4B05221A710A4B0622B0
:1012F0005A71094B07229A71074B0822DA71064B83
:1013000009221A72044B61225A72034B62229A72AA
:10131000BD4680BD500500200408002080B500AF08
:10132000194B0B221A70194B4C221A70174B492279
:101330005A70164B4E229A70154B1A78134BDA706E
:10134000114B1A78114B1A71104B6F225A71114BB5
:101350001B881B0A9BB2DAB20C4B9A710D4B1B888F
:10136000DAB20A4BDA710C4B1B881B0A9BB2DAB259
:10137000064B1A72084B1B88DAB2044B5A72034BA5
:10138000FF229A72BD4680BD50050020040800204F
:101390003608002030080020A808002080B500AFE3
:1013A000194B0B221A70194B4C221A70174B4922F9
:1013B0005A70164B4E229A70154B1A78134BDA70EE
:1013C000114B1A78114B1A71104B61225A71114B43
:1013D0001B881B0A9BB2DAB20C4B9A710D4B1B880F
:1013E000DAB20A4BDA710C4B1B881B0A9BB2DAB2D9
:1013F000064B1A72084B1B88DAB2044B5A72034B25
:10140000FF229A72BD4680BD5005002004080020CE
:1014100036080020FE080020FE07002080B500AF3F
:10142000194B0B221A70194B4C221A70174B492278
:101430005A70164B4E229A70154B1A78134BDA706D
:10144000114B1A78114B1A71104B62225A71114BC1
:101450001B881B0A9BB2DAB20C4B9A710D4B1B888E
:10146000DAB20A4BDA710C4B1B881B0A9BB2DAB258
:10147000064B1A72084B1B88DAB2044B5A72034BA4
:10148000FF229A72BD4680BD50050020040800204E
:1014900036080020F60700202008002080B500AFA5
:1014A000194B0B221A70194B4C221A70174B4922F8
:1014B0005A70164B4E229A70154B1A78134BDA70ED
:1014C000114B1A78114B1A71104B66225A71114B3D
:1014D0001B881B0A9BB2DAB20C4B9A710D4B1B880E
:1014E000DAB20A4BDA710C4B1B881B0A9BB2DAB2D8
:1014F000064B1A72084B1B88DAB2044B5A72034B24
:10150000FF229A72BD4680BD5005002004080020CD
:1015100036080020AC080020C008002080B500AFCD
:101520001D4B0D221A701D4B4C221A701B4B492269
:101530005A701A4B4E229A70194B1A78174BDA7060
:10154000154B1A78154B1A71144B67225A71154BAB
:101550001B881B0A9BB2DAB2104B9A71114B1B8885
:10156000DAB20E4BDA71104B1B881B0A9BB2DAB24F
:101570000A4B1A720C4B1B88DAB2084B5A720B4B8F
:101580001A78064B9A720A4B1A78044BDA72034B9C
:10159000FF221A73BD4680BD5005002004080020BC
:1015A0003608002000090020640800205A080020A6
:1015B0001808002080B500AF194B0B221A70194B88
:1015C0004C221A70174B49225A70164B4E229A70B1
:1015D000154B1A78134BDA70114B1A78114B1A719C
:1015E000104B68225A71114B1B881B0A9BB2DAB24E
:1015F0000C4B9A710D4B1B88DAB20A4BDA710C4B0B
:101600001B881B0A9BB2DAB2064B1A72084B1B8866
:10161000DAB2044B5A72034BFF229A72BD4680BD68
:101620005005002004080020360800204C0500204A
:101630004E05002080B500AF194B0B221A70194BD4
:101640004C221A70174B49225A70164B4E229A7030
:10165000154B1A78134BDA70114B1A78114B1A711B
:10166000104B69225A71114B1B881B0A9BB2DAB2CC
:101670000C4B9A710D4B1B88DAB20A4BDA710C4B8A
:101680001B881B0A9BB2DAB2064B1A72084B1B88E6
:10169000DAB2044B5A72034BFF229A72BD4680BDE8
:1016A0005005002004080020360800204A050020CC
:1016B000A008002080B500AF134B0B221A70134B0B
:1016C0004C221A70114B49225A70104B4E229A70BC
:1016D0000F4B1A780D4BDA700B4B1A780B4B1A71B3
:1016E0000A4B6A225A71094B6F229A71074B6B227F
:1016F000DA71064B6F221A72044B6B225A72034B3B
:10170000FF229A72BD4680BD5005002004080020CB
:101710003608002080B500AF1B4B0C221A701B4B03
:101720004C221A70194B49225A70184B4E229A704B
:10173000174B1A78154BDA70134B1A78134B1A7132
:10174000124B6B225A71134B1A78104B9A71124B31
:101750001B881B0A9BB2DAB20C4BDA710E4B1B884A
:10176000DAB20A4B1A720D4B1B881B0A9BB2DAB213
:10177000064B5A72094B1B88DAB2044B9A72034B20
:10178000FF22DA72BD4680BD50050020040800200B
:1017900036080020CA07002030080020A8080020D2
:1017A00080B500AF254B0F221A70254B4C221A70C2
:1017B000234B49225A70224B4E229A70214B1A78A1
:1017C0001F4BDA701D4B1A781D4B1A711C4B6C2283
:1017D0005A711D4B1B881B0A9BB2DAB2184B9A71C7
:1017E000194B1B88DAB2164BDA71184B1B881B0A8F
:1017F0009BB2DAB2124B1A72144B1B88DAB2104B3E
:101800005A72134B1B881B0A9BB2DAB20C4B9A72AA
:101810000F4B1B88DAB20A4BDA720E4B1B881B0A7D
:101820009BB2DAB2064B1A730A4B1B88DAB2044B2E
:101830005A73034BFF229A73BD4680BD50050020AA
:1018400004080020360800201608002004090020A3
:1018500030080020A808002080B500AF1D4B0D22E5
:101860001A701D4B4C221A701B4B49225A701A4B8E
:101870004E229A70194B1A78174BDA70154B1A785A
:10188000154B1A71144B6D225A71154B1A78124B65
:101890009A71124B1A78104BDA71124B1B881B0A83
:1018A0009BB2DAB20C4B1A720E4B1B88DAB20A4B9F
:1018B0005A720D4B1B881B0A9BB2DAB2064B9A7206
:1018C000094B1B88DAB2044BDA72034BFF221A73FE
:1018D000BD4680BD500500200408002036080020C9
:1018E0004408002030080020A808002080B500AF80
:1018F000194B0B221A70194B4C221A70174B4922A4
:101900005A70164B4E229A70154B1A78134BDA7098
:10191000114B1A78114B1A71104B6E225A71114BE0
:101920001B881B0A9BB2DAB20C4B9A710D4B1B88B9
:10193000DAB20A4BDA710C4B1B881B0A9BB2DAB283
:10194000064B1A72084B1B88DAB2044B5A72034BCF
:10195000FF229A72BD4680BD500500200408002079
:101960003608002030080020A808002080B500AF0D
:101970002F4B18221A702F4B4C221A702D4B4922D4
:101980005A702C4B4E229A702B4B1A78294BDA70D6
:10199000274B1A78274B1A71264B70225A71254B08
:1019A00000229A71254B1A78224BDA71234B5A7810
:1019B000204B1A72214B9A781E4B5A721F4BDA78C1
:1019C0001C4B9A721D4B1A791A4BDA721B4B5A79BF
:1019D000184B1A73194B9A79164B5A73174BDA79BD
:1019E000144B9A73154B1A7A124BDA73134B5A7ABB
:1019F000104B1A74114B9A7A0E4B5A740F4BDA7AB9
:101A00000C4B9A740D4B1A7B0A4BDA740B4B5A7BB6
:101A1000084B1A75094B9A7B064B5A75074BDA7BB4
:101A2000044B9A75034BFF22DA75BD4680BDC04654
:101A30005005002004080020360800204808002037
:101A400080B500AF1E4B00221A700BE01C4B1B78B8
:101A50001A1C1C4B00219954194B1B780133DAB224
:101A6000174B1A70164B1B780F2BEFD9144B002213
:101A70001A700BE0124B1B781A1C134B002199545F
:101A80000F4B1B780133DAB20D4B1A700C4B1B78DD
:101A90000F2BEFD90A4B00221A700BE0084B1B7872
:101AA0001A1C0A4B00219954054B1B780133DAB2FA
:101AB000034B1A70024B1B781F2BEFD9BD4680BD1C
:101AC000EE0700209008002048080020CC070020E6
:101AD00080B500AF03F0B0FC031C1A1C0D4B1A704C
:101AE0000C4B1B78032B0AD10B4B012000211A1C35
:101AF000102303F031FC031C1A1C084B1A70054B11
:101B00001B781A1C054B1B781B01D318181CBD46EB
:101B100080BDC0466308002090080020FC0800201B
:101B200080B500AF03F088FC031C1A1C0D4B1A7023
:101B30000C4B1B78032B0AD10B4B022000211A1CE3
:101B4000102303F009FC031C1A1C084B1A70054BE8
:101B50001B781A1C054B1B781B01D318181CBD469B
:101B600080BDC0466308002048080020FC08002013
:101B700080B500AF03F060FC031C1A1C0D4B1A70FB
:101B80000C4B1B78032B0AD10B4B042000211A1C91
:101B9000102303F0E1FB031C1A1C084B1A70054BC1
:101BA0001B781A1C054B1B781B01D318181CBD464B
:101BB00080BDC0466308002048080020FC080020C3
:101BC00080B500AF03F038FC031C1A1C0D4B1A70D3
:101BD0000C4B1B78032B0AD10B4B052000211A1C40
:101BE000102303F0B9FB031C1A1C084B1A70054B99
:101BF0001B781A1C054B1B781B01D318181CBD46FB
:101C000080BDC0466308002048080020FC08002072
:101C100080B582B000AF80237B60144B1A88BA2352
:101C20001B019A4214D903F007FC031C1A1C104B29
:101C30001A700F4B1B78032B08D10E4B0120191C77
:101C400003F060FB031C1A1C0B4B1A7000237B6013
:101C5000074B1B781A1C084B1B781B01D2187B689A
:101C6000D318181CBD4602B080BDC04648050020F0
:101C70006308002090080020FC08002080B582B096
:101C800000AF80237B60144B1A88BA231B019A4251
:101C900014D903F0D1FB031C1A1C104B1A700F4B04
:101CA0001B78032B08D10E4B0220191C03F02AFBD2
:101CB000031C1A1C0B4B1A7000237B60074B1B780C
:101CC0001A1C084B1B781B01D2187B68D318181CF0
:101CD000BD4602B080BDC046480500206308002014
:101CE00048080020FC08002080B582B000AF8023A7
:101CF0007B60144B1A88BA231B019A4214D903F053
:101D00009BFB031C1A1C104B1A700F4B1B78032BE8
:101D100008D10E4B0320191C03F0F4FA031C1A1C03
:101D20000B4B1A7000237B60074B1B781A1C084B67
:101D30001B781B01D2187B68D318181CBD4602B053
:101D400080BDC0464805002063080020CC07002065
:101D5000FC08002080B582B000AF80237B60144B6C
:101D60001A88BA231B019A4214D903F065FB031C9D
:101D70001A1C104B1A700F4B1B78032B08D10E4BFB
:101D80000420191C03F0BEFA031C1A1C0B4B1A701A
:101D900000237B60074B1B781A1C084B1B781B0128
:101DA000D2187B68D318181CBD4602B080BDC0464F
:101DB000480500206308002048080020FC08002097
:101DC00080B582B000AF80237B60144B1A88BA23A1
:101DD0001B019A4214D903F02FFB031C1A1C104B51
:101DE0001A700F4B1B78032B08D10E4B0520191CC2
:101DF00003F088FA031C1A1C0B4B1A7000237B603B
:101E0000074B1B781A1C084B1B781B01D2187B68E8
:101E1000D318181CBD4602B080BDC046480500203E
:101E20006308002048080020FC08002080B500AFAF
:101E3000124B134A1A80134B134A1A80134BFA227F
:101E400092001A80124BFA2292001A80114BFA2249
:101E500092001A80104BFA2292001A800F4BFA223D
:101E600092001A800E4BFA2292001A800D4B00222B
:101E70001A800D4B00221A80BD4680BD300800201C
:101E80007A7B0000A808002059580000F0070020C5
:101E9000B40800203C080020FC070020F2070020C6
:101EA0002E080020160800200409002080B500AF8D
:101EB000114B01221A70114B01221A70104B114A5A
:101EC0001A80114BFA22D2001A80104BFA22D2004B
:101ED0001A800F4BE12212011A800E4B0E4A1A8013
:101EE0000E4B0A221A800E4B35221A800D4B01220E
:101EF0001A70BD4680BDC046360800204408002048
:101F000060080020341200005C080020F608002061
:101F10003A080020BE0800206810000034080020A5
:101F200058080020CA07002080B500AF264B0A22BF
:101F30001A70264B0A221A70254B0A221A70254B5A
:101F40000A221A70244B0A221A80244BB0221A80CB
:101F5000234B012252421A80224B00221A80224B2C
:101F6000FA2292001A80214BFA2292001A801B4B0F
:101F70001A881F4B1A80194B1A881E4B1A80174B50
:101F80001A881D4B1A80154B1A881C4B1A80144B4B
:101F90001B881B0A9AB21A4B1A80114B1B881B0A0A
:101FA0009AB2184B1A800E4B1B88FF2213409AB22C
:101FB000154B1A800A4B1B88FF2213409AB2134B11
:101FC0001A80BD4680BDC04662080020400800203F
:101FD0008A08002014080020AA0800204A050020D2
:101FE000A0080020B8080020380800208C08002035
:101FF000EC07002042080020080900203E080020CD
:1020000032080020F40800201C080020A608002048
:1020100080B500AF0E4B05221A700E4B00221A70CD
:102020000D4B00221A800D4B0D4A1A800D4B0C4AA5
:102030001A800D4B0D4A1A800D4B0C4A1A800D4B1D
:102040000D4A1A800D4B0C4A1A80BD4680BDC04611
:102050005A08002018080020F4070020000900207A
:10206000FF0F000064080020A4080020FF0100000A
:10207000B2080020C8070020FF02000070090020FD
:1020800080B500AF194B1B78052B2CD89A00184B44
:10209000D3181B689F46174B00221A80164B00224C
:1020A0001A8021E0134B154A1A80134B134A1A80E9
:1020B0001AE0134B1A880F4B1A80124B1A880E4BDA
:1020C0001A80114B1A880B4B1A80104B1A880A4B36
:1020D0001A8009E00E4B1A88064B1A800D4B1A889D
:1020E000054B1A8000E0C046BD4680BD5A0800205E
:1020F00070950010AC080020C0080020FF7F000091
:10210000A4080020B2080020C807002070090020A1
:10211000000900206408002080B500AF204B1B8818
:102120001A1C204B181C111C02F0AAFE1E4B1B8807
:102130001A1C1E4B181C111C02F0A2FE1C4B1B8803
:102140001A1C1C4B181C111C02F09AFE1A4B1B88FF
:102150001A1C1A4B181C111C02F092FE184B1B88FB
:102160001A1C104B181C111C02F09AFE154B1B88F0
:102170001A1C0E4B181C111C02F092FE124B1B88ED
:102180001A1C0C4B181C111C02F08AFE0F4B1B88EA
:102190001A1C0A4B181C111C02F082FEBD4680BDA1
:1021A000F8070020D00500200209002014060020B6
:1021B000FA07002058060020000800209C06002096
:1021C000420800203E080020EC07002008090020FB
:1021D00080B582B000AF284B1B881B0A9AB2274BF0
:1021E0001A80254B1B881B0A9AB2254B1A80224B5A
:1021F0001B88FF2213409AB2224B1A801E4B1B8869
:10220000FF2213409AB2204B1A80204B1B881A1CC5
:102210001A4B1B8853437B607B681B0A1B099AB2CD
:102220001B4B1A80194B1B881A1C164B1B885343D7
:102230007B607B681B0A1B099AB2164B1A80164BEF
:102240001B881A1C0E4B1B8853437B607B681B0A40
:102250001B099AB2114B1A800F4B1B881A1C0A4B90
:102260001B8853437B607B681B0A1B099AB20C4B8B
:102270001A80BD4602B080BDA008002032080020B0
:10228000F40800201C080020A6080020AC0800204C
:10229000FA070020F8070020C008002000080020EE
:1022A0000209002080B582B000AF1E4B01225242CD
:1022B0001A801C4B1B881A1C1B4B1B8853437B60CA
:1022C0007B681B0C7B60194B1B881A1C184B9B1AD4
:1022D0001A1C7B6853437B607B681B0C7B607B68AC
:1022E0009AB2104B1A80134B012252421A80114BA2
:1022F0001B881A1C0C4B1B8853437B607B681B0C90
:102300007B600A4B1B881A1C7B6853437B607B688D
:102310001B0C7B607B689AB2064B1A80BD4602B0EC
:1023200080BDC046AC0800204C0500204E050020B2
:10233000FFFF0000C008002080B582B000AF3B4B1B
:102340001B78052B00D06EE0394B1B8801339AB205
:10235000374B1A80364B1B883B2B64D9344B0022F9
:102360001A80FFF72DFC021CFB1D1A70FB1D1B7849
:10237000032B52D12F4B1A882F4B1A802F4B1A88C0
:102380002F4B1A802F4B1B799AB22B4B1B881B0AA1
:102390009BB29A4220D12B4B5B791A1C264B1B888F
:1023A000191CFF230B409A4216D1264B9B799AB2F7
:1023B000234B1B881B0A9BB29A420DD1214BDB7920
:1023C0001A1C1F4B1B88191CFF230B409A4203D178
:1023D000174B00221A8023E0174B1B881B0A9BB265
:1023E000DAB2184B1A71144B1B88DAB2154B5A71BA
:1023F000134B1B881B0A9BB2DAB2124B9A71104B1B
:102400001B88DAB20F4BDA71FFF7DAFC021CFB1DF6
:102410001A70074B00221A8002E0054B1E221A8018
:10242000034B00221A80BD4602B080BD5A0800202E
:1024300068070020AC08002000090020C008002028
:10244000640800204808002080B500AFBD4680BD6C
:1024500080B500AFBD4680BD80B500AF024B181CF3
:1024600004F0EAFEBD4680BDF497001080B500AFD1
:10247000364B1B881A1C131C5B009B18344A1288AD
:102480009B18002B00DA03339B109AB22F4B1A8053
:10249000304B1B881A1C131C5B009B182E4A128899
:1024A0009B18002B00DA03339B109AB2294B1A8039
:1024B0002A4B1B881A1C131C5B009B18284A128885
:1024C0009B18002B00DA03339B109AB2234B1A801F
:1024D000244B1B881A1C131C5B009B18224A128871
:1024E0009B18002B00DA03339B109AB21D4B1A8005
:1024F0001E4B1B8801339AB21C4B1A801B4B1B8846
:10250000052B21D9194B00221A80104B1B88184A21
:10251000934209D8FFF798FF164B00221A70164B0A
:10252000181CFEF7EDFD0FE0084B1A88BF231B01B6
:102530009A4209D9FFF78CFF0E4B1B78002B03D171
:102540000D4B181CFEF7CCFDBD4680BDFE080020DB
:10255000C4070020FE070020A2080020F607002084
:1025600006090020200800206607002064070020DC
:102570009F0B00006D0700201C97001098B500AF5E
:10258000174B1B78002B29D1FFF794F8154B3022FD
:102590005A71154B1B881B0A9BB2DAB2114B9A7108
:1025A000114B1B88DAB20F4BDA71104B1B881B0AD8
:1025B0009BB2DAB20B4B1A720C4B1B88DAB2094B86
:1025C0005A720B4B1B781C1C0A4A064B101C191C18
:1025D000221C01F03FFB024B01221A70BD4698BD40
:1025E0006C0700200408002030080020A808002004
:1025F000500500206005002080B500AF04F07EFB90
:1026000004F0C2FBBD4680BD80B500AF124B1A6816
:10261000FF231B0213401A0A104B1A600E4B1B6853
:10262000FF221A400E4B1A600C4B1B68002B0ED079
:102630000A4B1B681A020A4B1B68D3180948191C5D
:1026400000F05EFC031C5A00074B1A6002E0064BC8
:10265000064A1A60BD4680BD000301407007002095
:1026600074070020000024F4FC3F00200048E8012B
:1026700080B500AF00F01AF8021C012313405A1E67
:102680009341DBB2181CBD4680BDC04680B500AF8B
:102690000549054B9B889BB2C022920113439BB214
:1026A0008B80BD4680BDC0460000054080B500AFB0
:1026B000024B1B889BB2181CBD4680BD0000054024
:1026C00080B582B000AF7860396082235B001B6800
:1026D00039687A68081C111C9847BD4602B080BD55
:1026E00080B586B000AFF860B9607A601A1CFB1C38
:1026F0001A70294A284B9B889BB2FF218B439BB2BF
:1027000093802549244B9B889BB2C022920113439E
:102710009BB28B80FB1C1B78002B08D01E4A1E4BE3
:102720009B889BB261210B439BB2938007E01A4ABE
:10273000194B9B889BB2A1210B439BB29380002332
:102740003B611AE000237B610CE0BB681A68FB6800
:102750001A60BB680433BB60FB680433FB607B69B1
:1027600001337B617B69032BEFD9C046FFF780FF04
:10277000031EFBD13B6901333B613A697B689A4296
:10278000E0D3054A044B9B889BB2FF218B439BB24D
:102790009380BD4606B080BD0000054080B584B082
:1027A00000AF786039600023FB6011E080235B009C
:1027B0001B687A68101C9847C046FFF759FF031E34
:1027C000FBD17B680133FF337B60FB680133FB6027
:1027D000FA683B689A42E9D3BD4604B080BDC04662
:1027E00080B586B000AFF860B9607A6000233B61C5
:1027F00015E000237B610CE0FB681A68BB681A6077
:10280000BB680433BB60FB680433FB607B69013346
:102810007B617B69032BEFD93B6901333B613A69EB
:102820007B689A42E5D3BD4606B080BD80B582B0D4
:1028300000AF786039607A683B68101C191CFFF79C
:102840003FFFBD4602B080BD90B585B000AFF860D7
:102850007A600B23FB180A1C1A700B23FB181B78D9
:102860009B08DBB2181C0B23FB181B789B08DBB200
:102870001A1CFB6804329200D3580B22BA18127843
:1028800003210A40D200111CF8228A40D2431A4088
:10289000111CFB68021D9200D150FB685B6F0B227C
:1028A000BA1812785200111C03228A40D2431A40EF
:1028B000FB685A670B23FB181B78DB08DBB2181C7C
:1028C0000B23FB181B78DB08DBB21A1CFB681032E9
:1028D0009200D3580B22BA18127807210A409200AE
:1028E000111C04228A40D2431A40111CFB68021CAE
:1028F00010329200D1500B23FB181B78DB08DBB29F
:10290000181C0B23FB181B78DB08DBB21A1CFB68B6
:1029100010329200D2587B685B781C1C0B23FB188A
:102920001B7807210B409B009C40231C1A43111C61
:10293000FB68021C10329200D150FB681D4A934282
:102940000BD1FB681B6E0B22BA1812780121914043
:102950000A1CD2431A40FB681A667B685A680B232C
:10296000FB181B789A40FB685A600B23FB181B78F6
:102970009B08DBB2181C0B23FB181B789B08DBB2EF
:102980001A1CFB6804329200D2587B681B781C1C0E
:102990000B23FB181B7803210B40DB009C40231CFE
:1029A0001A43111CFB68021D9200D150BD4605B0B0
:1029B00090BDC0460002044080B500AF024BC32268
:1029C0005A62BD4680BDC0460000014080B500AFE0
:1029D000054BC0225A62C046034B5B6A0422134077
:1029E000FAD1BD4680BDC0460000014080B582B02E
:1029F00000AF7860FFF7EAFF0C4A0C4B1B680C49EC
:102A000019407B689B6819437B685B680B431360C4
:102A1000FFF7D2FF7B685B781A1C7B681B78101C61
:102A2000191C00F039F8BD4602B080BD000301401A
:102A3000FFFFF0FF80B582B000AF021CBB1D1A8003
:102A4000FFF7C4FF094B094A1169BA1D12880A43EE
:102A50001A61C046054B1A688023DB051340F9D183
:102A6000FFF7AAFFBD4602B080BDC046000301408B
:102A700080B582B000AF021CBB1D1A80054B9B685D
:102A8000BA1D128813405A1E9341DBB2181CBD4672
:102A900002B080BD0003014080B584B000AF786013
:102AA0003960FFF793FF214B1A68FF231B02134085
:102AB0001B0AFB601D4B1D4A12681D4911403A68F4
:102AC0000A431C490A431A60C046184B1A688023FF
:102AD000DB051340F9D1FA687B689A4206D8FA6898
:102AE0007B68101C191C00F053F805E0FA687B683D
:102AF000101C191C00F022F80C4B0C4A12680E49ED
:102B000011407A6812020A430A490A431A60C04611
:102B1000064B1A688023DB051340F9D1FFF74CFF01
:102B2000FFF772FDBD4604B080BDC0460003014002
:102B300000FF0FC00000F03FFF000FC080B582B063
:102B400000AF7860396014E07B689B087B600D4BB8
:102B50000C4A12680C4911407A6812020A430B4968
:102B60000A431A60C046074B1A688023DB051340EE
:102B7000F9D13B689A007B689A42E5D3BD4602B022
:102B800080BDC04600030140FF000FC00000F03FC1
:102B900080B582B000AF7860396019E07B68002BA7
:102BA00001D101237B607B689B007B600C4B0C4A4E
:102BB00012680C4911407A6812020A430A490A4312
:102BC0001A60C046064B1A688023DB051340F9D112
:102BD0007B689A003B689A42E0D3BD4602B080BD54
:102BE00000030140FF000FC00000F03F80B500AFC0
:102BF000024B1B68181CBD4680BDC046FC3F002030
:102C000080B582B000AF786039601020FFF712FF06
:102C10003B681A687B681A603B685A687B685A6030
:102C20003B689A687B689A62BD4602B080BDC04628
:102C300080B582B000AF78600A1CFB1C1A707B68FC
:102C40001B68074A1A407B681A607B681A68FB1C7D
:102C50001B789B011A437B681A60BD4602B080BD99
:102C60003FFCFFFF80B582B000AF78600A1CFB1C00
:102C70001A707B681B68074A1A407B681A607B6879
:102C80001A68FB1C1B789B021A437B681A60BD46BE
:102C900002B080BDFFFBFFFF80B582B000AF78605F
:102CA00039607B685B68074A1A407B685A607B68BA
:102CB0005A683B681B041A437B685A60BD4602B0E1
:102CC00080BDC046FFFF00F080B582B000AF7860E5
:102CD00039607B689A693B681A437B689A61BD4694
:102CE00002B080BD80B582B000AF786039607B688B
:102CF000DA683B68012199400B1C1A437B68DA6053
:102D0000BD4602B080BDC04680B584B000AFF8605B
:102D1000B960FB1D1A70FB681A69FB1D1978BB6846
:102D200099400B1C1A43FB681A61BD4604B080BD74
:102D300080B582B000AF786039607B681A693B6803
:102D40008021490299400B1C1A437B681A61BD46D9
:102D500002B080BD80B586B000AFF860B960FB1DE1
:102D60001A70FB685B69BA688021490291400A1CAD
:102D7000D2431A40FB685A61BB6801229A40131C77
:102D80007B61FB1D1B78BA68103293407A6913434C
:102D90007B61FB685A697B691A43FB685A61BD46CF
:102DA00006B080BD80B582B000AF786039603B6806
:102DB0001A687B689A603B685A687B68DA603B688F
:102DC0009A687B681A61BD4602B080BD80B586B046
:102DD00000AFF8607A600B23FB180A1C1A70FB68BE
:102DE0009B680B4A1A40FB689A600B23FB181B7800
:102DF0009B027B617B68DB027A6913437B61FB6822
:102E00009A687B691A43FB689A60BD4606B080BD2C
:102E1000FFF3FFFF80B582B000AF786039607B6858
:102E20009B68074A1A407B689A607B689A683B688F
:102E30001B041A437B689A60BD4602B080BDC04641
:102E4000FFFF00FC80B582B000AF786039607B681E
:102E50003A681A60BD4602B080BDC04680B582B0F7
:102E600000AF786039603B681A687B689A60BD463D
:102E700002B080BD80B582B000AF786039607B68F9
:102E80003A681A60BD4602B080BDC04680B582B0C7
:102E900000AF786039607B689B689B0A9A027B6808
:102EA0009A607B689A683B681A437B689A60BD4663
:102EB00002B080BD80B582B000AF7860081C111CE4
:102EC000FB1C021C1A70BB1C0A1C1A707B685B6F0F
:102ED000FA1C12785200111C03228A40D2431A4075
:102EE0007B685A677B685A6FBB1C1B78F91C097892
:102EF00049008B401A437B685A67BD4602B080BDCB
:102F000080B582B000AF78603960074B04225A6305
:102F1000054B7A681A62044B3A685A62024B9B6A04
:102F2000181CBD4602B080BD0000034080B582B0D1
:102F300000AF78607B689B6BDBB27F229343DBB290
:102F4000181CBD4602B080BD80B582B000AF78606D
:102F500039607B683A68DA64BD4602B080BDC0461D
:102F600080B584B000AF786039601023FB607B6867
:102F7000181C00F09BF83B68DB79002B02D03B6803
:102F8000DB79FB603B681A687968FB68081C111CD8
:102F90001A1C00F0B3F83B689B79013B5A00FB68B0
:102FA0005B0801331B02134301221A437B68DA6377
:102FB0003B681B79013B1B06812252001A437B6848
:102FC0005A633B685B79002B09D07B685A6B3B687E
:102FD0005B79013B1B041A437B685A6308E07B68FA
:102FE0005A6B3B681B79013B1B041A437B685A638D
:102FF0007B68A022D2009A637B6801225242DA6485
:103000003B681B891A1C7B681A64BD4604B080BDEE
:1030100080B582B000AF78600A1CBB1C1A807A6849
:1030200084235B00D258E023DB04134014D1C04654
:103030007B68181CFFF77AFF031E802BF8D07A6894
:1030400080239B01101C191CFFF77EFFBB1C1A88F4
:103050007B6880215A5005E0BB1C19887A68C02320
:103060005B00D150BD4602B080BDC04680B584B083
:1030700000AF78607A6886235B00D258E023DB04D7
:10308000134005D17B685A6D0E23FB181A8006E0A9
:103090007A688E235B00D2580E23FB181A800E2309
:1030A000FB181B88181CBD4604B080BD80B582B0DB
:1030B00000AF78607A689023DB059A4203D07B6882
:1030C0000C4A934203D10C4B181C00F083F97B6827
:1030D0000322DA60C0467B68DB6801221340FAD025
:1030E0007B681B6C0F2293431A1C7B681A64BD46D5
:1030F00002B080BD000200480800004880B58EB0D4
:1031000000AFF860B9607A60BB68632B5CD97B68FC
:10311000002B59D0FFF76AFD031C181C6421FFF730
:10312000EFFE031C3B62BB68181C6421FFF7E8FE3E
:10313000031CBB600123FB620123BB62284B7B6243
:10314000274B3B6324E03B6A3A6B5A43111CBB6834
:103150007A685343081C191CFFF7D2FE031CFB615D
:10316000FB699B0ABB61FB699B059B0D7B61BB698E
:103170001B4A934209D87A697B6A9A4205D27B69D5
:103180007B62BB69BB623B6BFB623B6B013B3B639E
:103190003B6B002BD7D1FB6A802212021A43FB68DB
:1031A0001A61FB685B690F4A1A407B68013B9B020E
:1031B0001A43BB6A013B1B041A43FB685A6137235D
:1031C000FB1800221A7003E03723FB1801221A7043
:1031D0003723FB181B78181CBD460EB080BDC046B7
:1031E000FF030000EF8000FC80B584B000AFF86002
:1031F000B9603B60FB1D1A70FA6884235B00D358EA
:103200000E4A1340191CFA6884235B00D150FA68F7
:1032100084235B00D3580A4A1A403B681902BB68F2
:103220001943FB1D1B781B060B431A43111CFA683C
:1032300084235B00D150BD4604B080BDFFFFFFF882
:10324000C0C0FFF880B584B000AFF860B9603B60E3
:10325000FB1D1A70FA6886235B00D358104A13408E
:10326000191CFA6886235B00D150FA6886235B003C
:10327000D3580C4A1A403B681902BB681943FB1D1E
:103280001B781B060B431343802252051A43111C63
:10329000FA6886235B00D150BD4604B080BDC046AD
:1032A000FFFFFFF8C0C0FFEF80B584B000AFF8604B
:1032B0007A600B23FB180A1C1A70FA6886235B00DD
:1032C000D3580E4A1340191CFA6886235B00D1506C
:1032D000FA6886235B00D358094A1A407B681B02B0
:1032E0001A430B23FB181B781B061A43111CFA68A0
:1032F00086235B00D150BD4604B080BDFFFFFFF8C0
:10330000FFC0FFFF80B584B000AFF8607A600B2388
:10331000FB180A1C1A70FB689B690B22BA181278FA
:10332000072191400A1CD2431A400B23FB181B783B
:10333000796899400B1C1A43FB689A61BD4604B03A
:1033400080BDC04680B584B000AFF8607A600B23C2
:10335000FB180A1C1A70FA6884235B00D3580B22EE
:10336000BA181278072191400A1CD2431A400B2345
:10337000FB181B78796899400B1C1A43111CFA68DA
:1033800084235B00D150BD4604B080BD80B584B0BD
:1033900000AFF8607A600B23FB180A1C1A70FA68F9
:1033A00086235B00D3580B22BA181278072191406C
:1033B0000A1CD2431A400B23FB181B7879689940EA
:1033C0000B1C1A43111CFA6886235B00D150BD46C2
:1033D00004B080BD80B582B000AF78607B68044ADD
:1033E000934202D10820FFF725FBBD4602B080BD05
:1033F0000800004880B584B000AF786039603B1C9D
:103400001B785B075B0FDBB21A1CBB1C1B889B0580
:103410009B0D9BB21B041343FB607A68F8235B008F
:10342000F968D150FB1C1B78DB06DB0FDBB21A07F7
:10343000FB1C1B781B079B0FDBB29B061A43FB1C74
:103440001B789B06DB0FDBB25B071343FB60FB1CA7
:103450001B785B06DB0FDBB29B07FA681343FB604C
:103460007A68F8235B00D258FB6813438022120667
:103470001A43111C7A68F8235B00D150BD4604B092
:1034800080BDC04680B582B000AF78607B68842282
:103490009B58802252041A437B6884215A50BD46AF
:1034A00002B080BD80B582B000AF78607B688422B6
:1034B0009B58044A1A407B6884215A50BD4602B08A
:1034C00080BDC046FFFFFFFE80B500AF034BFF226B
:1034D0001A600120FFF7AEFABD4680BD000501402D
:1034E00080B582B000AF78603960FFF7EDFF3B68D0
:1034F0005A697B681A603B685B68802212021A4333
:103500007B6880215A503B689A687B68A0215A509A
:103510003B68DA687B68A4215A503B6819697A686D
:10352000A0239B00D1503B681A687B68B8215A5091
:10353000BD4602B080BDC04680B584B000AF7860A3
:103540007B6880229B58802212061A437B68802168
:103550005A500F23FB1800221A701CE00F23FB188F
:103560001A78114B9200D358BB60BB6880229A58DE
:10357000C0239B02134007D0C046BB6880229A58E4
:1035800080235B051340F8D10F23FB181A780F2313
:10359000FB1801321A700F23FB181B78012BDDD9A1
:1035A000BD4604B080BDC0468895001080B582B08D
:1035B00000AF786039607A683B685B68101C191C42
:1035C0000022002300F030F87A683B685B68101C2A
:1035D000191C0122002300F027F87A683B689B68D9
:1035E000101C191C0022012300F01EF87A683B68A9
:1035F0009B68101C191C0122012300F015F83B6880
:103600001A697B6880215A503B68DA687B68B82168
:103610005A507A683B681B68101C191CFFF7EAFEB9
:10362000BD4602B080BDC04680B58CB000AFF8602A
:10363000B9603B60FB1D1A70FB1D1B78002B19D174
:103640000823FB62E023DB007B620023BB621F23B5
:103650003B620823FB181B78DB06DB0EDBB2FB6149
:103660000923FB181B785B075B0FDAB21B23FB18DF
:103670001A7019E01823FB62E023DB047B6210233D
:10368000BB62F8235B033B620A23FB181B78DB0653
:10369000DB0EDBB2FB610B23FB181B785B075B0FB8
:1036A000DAB21B23FB181A70FB683A6828329200C2
:1036B000D3587B617B6ADA437B6913407B611B23B0
:1036C000FB181A78FB6A9A40131C7A6913437B61D2
:1036D0003B6ADA437B6913407B61BB6AFA699A40B3
:1036E000131C7A6913437B61FB683A6828329200A5
:1036F0007969D150BD460CB080BDC04680B584B05C
:1037000000AF78600A1CFB1C1A707B6880229B58F3
:10371000FB60FB6803229343FB60FB1C1B78FA6889
:103720001343FB607B688021FA685A50BD4604B0A1
:1037300080BDC04680B586B000AFF860B9607A60E1
:103740007A68BB689A4202D9BB680133BB60FB68E8
:10375000C0229B587B617B69032293437B617A691A
:10376000BB6813437B61FB68C0217A695A50BD4630
:1037700006B080BD80B584B000AF78607B68C022A1
:103780009B58FB60FB6803229343FB607B68C0216E
:10379000FA685A50BD4604B080BDC04680B582B0BC
:1037A00000AF786039607B68C0229B5810221A43B2
:1037B0007B68C0215A50BD4602B080BD80B582B042
:1037C00000AF78600A1CFB1C1A70FB1C1B78002BD6
:1037D00008D17B6880229B5801221A437B68802194
:1037E0005A500BE0FB1C1B78012B07D17B6884220D
:1037F0009B5801221A437B6884215A50BD4602B06F
:1038000080BDC04680B584B000AF786039607B6809
:10381000181CFFF747FE7B6884229B58FB60FB68FF
:1038200003229343FB603B681B781B079B0FDBB2B3
:103830001A1CFB681343FB603B681B780322134090
:10384000DBB2002B03D0FB6808221343FB607B68CC
:103850008421FA685A503B685B68154A1A43111C68
:103860007A6880235B00D1503B689B6801221A4331
:10387000111C7A6882235B00D1503B681B780322BD
:103880001340DBB2022B0BD17A6882235B00D35842
:10389000802252021A43111C7A6882235B00D150A5
:1038A0007B68181CFFF7EEFDBD4604B080BDC04626
:1038B0000080808080B584B000AF78600A1CFB1C5B
:1038C0001A707A68E0235B00D358FB60FB680F2214
:1038D0009343FB60FB1C1B78FA681343FB607A6818
:1038E000E0235B00F968D150BD4604B080BDC046FE
:1038F00080B588B000AFF860B9607A607B681B7BE8
:10390000BB61FB6888229B587B61BB6801229A409F
:10391000131CDA437B6913407B61BB68BA699A4028
:10392000131C7A6913437B61FB6888217A695A50BA
:103930007B685B7B5BB2002B2ADB0023FB61BB68EF
:10394000012B0AD10823FB61FB68B0229B581E4A59
:103950001A40FB68B0215A500DE0BB68002B0AD119
:103960000023FB61FB68B0229B581F2293431A1C63
:10397000FB68B0215A50FB68B0229B587A68527B92
:1039800051B2FA6991400A1C1A43FB68B0215A509F
:10399000FB68C8229A587B685B681A43FB68C82199
:1039A0005A50FB68D0229A587B689B681A43FB6880
:1039B000D0215A507B681968FB68BA68803292003F
:1039C000D150BD4608B080BDFFE0FFFF80B586B096
:1039D00000AFF860B960FB1D1A70BB68072B1BD8DD
:1039E000FA68D8235B00D3587B61BB689B001A1C24
:1039F0000F239340DA437B6913407B61FB1D1B78E7
:103A0000BA68920093407A6913437B61FA68D823BD
:103A10005B007969D15020E0FA68DA235B00D35863
:103A20007B61BB680E4A944663449B001A1C0F23BB
:103A30009340DA437B6913407B61FB1D1B78BA68B6
:103A400007498C466244920093407A6913437B6134
:103A5000FA68DA235B007969D150BD4606B080BDB3
:103A6000F8FFFF3F80B500AFBD4680BD80B582B096
:103A700000AF786039607B681A6C3B681A437B68DA
:103A80001A64BD4602B080BD80B582B000AF7860D8
:103A900039607B681B6C3A68D2431A407B681A64B1
:103AA000BD4602B080BDC04680B582B000AF786030
:103AB0007B689B6BDBB27F229343DBB2181CBD4655
:103AC00002B080BD80B582B000AF786039603B68DD
:103AD000802252029A407B689A66BD4602B080BD41
:103AE00080B582B000AF786039607A6884235B006B
:103AF000D2583B681A43111C7A6884235B00D1506A
:103B0000BD4602B080BDC04680B582B000AF7860CF
:103B100039607A6884235B00D3583A68D2431A40EC
:103B2000111C7A6884235B00D150BD4602B080BD71
:103B300080B582B000AF78607A688C235B0080210A
:103B40000902D150BD4602B080BDC04680B582B0EA
:103B500000AF78607A688A235B00D25880235B01CB
:103B600013405A1E9341DBB2181CBD4602B080BD03
:103B700080B582B000AF78607A688A235B00D25843
:103B800080231B0113405A1E9341DBB2181CBD4613
:103B900002B080BD80B582B000AF786039607A68CD
:103BA00086235B00D2583B681A43111C7A6886232F
:103BB0005B00D150BD4602B080BDC04680B582B02A
:103BC00000AF786039607A6886235B00D3583A6822
:103BD000D2431A40111C7A6886235B00D150BD463F
:103BE00002B080BD80B582B000AF78607A688C2367
:103BF0005B008021C901D150BD4602B080BDC046E6
:103C000080B582B000AF78607A688A235B00D358B1
:103C1000082213405A1E9341DBB2181CBD4602B065
:103C200080BDC04690B585B000AF78600F23FB180B
:103C300000221A707B685B685B680F22BC1898478B
:103C4000031C23700F23FB181B78181CBD4605B0FE
:103C500090BDC04690B587B000AFF860B9607A609B
:103C60001723FB1804221A70FB685B6829229B5CEF
:103C7000002B00D00CE01723FC18F968BA687B68A9
:103C8000081C111C1A1C00F031F8031C2370C046DC
:103C90001723FB181B78181CBD4607B090BDC04603
:103CA00090B587B000AFF860B9607A601723FB1851
:103CB00004221A70FB685B682A229B5C002B00D0F0
:103CC0000CE01723FC18F968BA687B68081C111C03
:103CD0001A1C00F073F8031C2370C0461723FB184E
:103CE0001B78181CBD4607B090BDC04680B586B095
:103CF00000AFF860B9607A601723FB1804221A70CD
:103D0000FB689B683B61FB685B6829229B5C002B1E
:103D10004CD11723FB1802221A703B691B7EDBB2C1
:103D200001225340DBB2002B40D0BB68002B39D0BE
:103D30007B68002B36D03B69BA681A603B697A68A9
:103D40009A603B690022DA603B6901221A76FB68BF
:103D50005B682B229B5C002B0DD0FB681B68181C3A
:103D6000FFF7E6FEFB681A688023DB05101C191CB0
:103D7000FFF7B6FE07E0FB681A6880239B01101C62
:103D8000191CFFF773FE1723FB1800221A70FB683B
:103D90001968FB685B682D229B5C081C191CFFF7E7
:103DA00091FE03E01723FB1803221A701723FB1858
:103DB0001B78181CBD4606B080BDC04680B586B0D5
:103DC00000AFF860B9607A601723FB1804221A70FC
:103DD000FB689B683B61FB685B682A229B5C002B4D
:103DE00048D11723FB1802221A703B695B7EDBB2B5
:103DF00001225340DBB2002B3CD0BB68002B35D0F6
:103E00007B68002B32D03B69BA685A603B697A689C
:103E10001A613B6901225A763B6900225A61FB68AC
:103E20005B682C229B5C002B13D0FB681B68181C62
:103E3000FFF7D8FEFA687B68101C191C00F03EF9E9
:103E4000FB681A68C023DB05101C191CFFF7A2FED3
:103E500007E0FB681A68C0231B02101C191CFFF73F
:103E600005FE1723FB1800221A7003E01723FB1826
:103E700003221A701723FB181B78181CBD4606B0C6
:103E800080BDC04680B584B000AF78607B689B6819
:103E9000FB60FB68DA68FB689B689A4241D27B68EA
:103EA0005B682B229B5C002B28D01AE0FB68DA6849
:103EB000FB689B689A4212D27B681968FB681A6893
:103EC000FB68DB68D3181B789BB2081C191CFFF732
:103ED0009FF8FB68DB685A1CFB68DA6001E0C046AB
:103EE00055E07B681B68181CFFF730FE031C1A1C8A
:103EF00001235340DBB2002BD8D148E07B6819681E
:103F0000FB681A68FB68DB68D3181B789BB2081C37
:103F1000191CFFF77DF8FB68DB685A1CFB68DA6048
:103F200035E07B681B68181CFFF722FE031E2ED0AD
:103F30007B685B682B229B5C002B08D07B681A682F
:103F40008023DB05101C191CFFF7DEFD07E07B68F2
:103F50001A6880239B01101C191CFFF795FDC046B1
:103F60007B681B68181CFFF79FFD031E802BF7D092
:103F7000FB6800221A76FB6800221A607B685B6887
:103F80009B68002B03D07B685B689B689847BD46A5
:103F900004B080BD90B585B000AF78607B689B6849
:103FA000FB607B685B682C229B5C002B51D033E06C
:103FB000FB685A69FB681B699A4211D2FB685A6810
:103FC000FB685B69D4187B681B68181CFFF74EF808
:103FD000031CDBB22370FB685B695A1CFB685A61E7
:103FE000FB685A69FB681B699A4215D1FB6800227D
:103FF0005A767B681A68C023DB05101C191CFFF772
:10400000DDFD7B685B68DB68002B04D07B685B6848
:10401000DB6898470CE00BE07B681B68181CFFF717
:10402000EFFD031C1A1C01235340DBB2002BBFD150
:10403000FB685A69FB681B699A423CD2FB681A69A3
:10404000FB685B69D31A7A68101C191C00F036F8FB
:1040500031E0FB685A69FB681B699A4211D2FB6820
:104060005A68FB685B69D4187B681B68181CFEF7EC
:10407000FDFF031CDBB22370FB685B695A1CFB6805
:104080005A61FB685A69FB681B699A4213D1FB6845
:1040900000225A767B681A68C0231B02101C191C68
:1040A000FFF7F2FC7B685B68DB68002B03D07B6862
:1040B0005B68DB689847BD4605B090BD80B584B0AD
:1040C00000AF786039600023FB607B685B682C225E
:1040D0009B5C1A1C01239340BB603A68BB689A4200
:1040E00003D23B68013BFB6002E0BB68013BFB6025
:1040F0007B6819687B685B682C229A5CFB68081CEB
:10410000111C1A1CFFF7D0F8BD4604B080BDC04694
:1041100080B582B000AF021CFB1D1A70064BFA1D61
:104120001278111C1F220A40012191400A1C1A60BA
:10413000BD4602B080BDC04600E100E0B0B582B02F
:1041400000AF021C3960FB1D1A70FB1D1B787F2B12
:104150002FD92D4CFB1D1B781A1C0F231340083B35
:104160009908294AFB1D1B78181C0F230340083BA4
:104170009B0806339B00D3185B68FA1D1278101C4D
:1041800003220240D200101CFF228240D2431A4078
:104190003B689B01FF200340F81D0078051C0320AD
:1041A0002840C00083401A438B1D9B00E3185A60CF
:1041B00026E0164CFB1D1B785BB29B081349FA1DC9
:1041C000127852B29208C03292005258F91D097802
:1041D000081C03210140C900081CFF218140C9437C
:1041E00011403A689201FF200240F81D0078051C3A
:1041F00003202840C00082400A43C0339B001A516C
:10420000BD4602B0B0BDC04600ED00E000E100E0F8
:1042100080B582B000AF7860081C111CFB1C021C2A
:104220001A70BB1C0A1C1A70FB1C1878FB1C1B782C
:104230007A6806339B00D3185B68072293431A1CE5
:10424000BB1C1B781A437968831D9B00CB185A60EE
:10425000BD4602B080BDC04680B582B000AF786078
:104260007B681B6C0F22934302221A437B681A64FB
:10427000BD4602B080BDC04680B582B000AFFB1D18
:1042800000221A70374A384B101C01211A1CFEF705
:10429000DBFA9023DA05354B101C191CFEF760FE83
:1042A0009023DB05181C00210522FFF7B1FF9023A6
:1042B000DB05181C03210022FFF7AAFF9023DB0572
:1042C000181C05210022FFF7A3FF9023DB05181C13
:1042D000302104220123FEF787FF9023DB05181C01
:1042E000202104220023FEF7ADFF9023DB05181CDC
:1042F000FFF7B2FF1E4A1F4B101C01211A1CFEF7CC
:10430000A3FA9023DB05181C10210022FEF7FAFF08
:104310009023DB05181C10210322FFF713F89023CC
:10432000DB05181C10210122FFF730F89023DB0574
:10433000181C13210122FFF729F80C200321FFF795
:10434000FDFE0C20FFF7E4FE0A200321FFF7F6FE36
:104350000A20FFF7DDFEFB1D1B78181CBD4602B0CE
:1043600080BDC04600020440E0950010909500100A
:10437000000104409C95001080B500AF024B181C52
:10438000FFF780FDBD4680BD5405002080B500AF1D
:10439000024B181CFFF7FEFDBD4680BD54050020F2
:1043A00080B582B000AFFB1D00221A70314A324B3B
:1043B000101C07211A1CFEF747FA304A304B101C1C
:1043C000191CFEF7CDFD2D4B181C00210322FFF711
:1043D0001FFF2A4B181C03210022FFF719FF274B50
:1043E000181C05210022FFF713FF244B181C102175
:1043F00004220123FEF7F8FE204B181C00210422A2
:104400000023FEF71FFF1D4B181CFFF725FF194A5D
:104410001C4B101C06211A1CFEF716FA174B181C11
:1044200010210022FEF76EFF144B181C10210422ED
:10443000FEF788FF114B181C10210222FEF7A6FF81
:104440000E4B181C13210222FEF7A0FF0D200321A2
:10445000FFF774FE0D20FFF75BFE0B200321FFF733
:104460006DFE0B20FFF754FEFB1D1B78181CBD468C
:1044700002B080BD000004403896001000020048E1
:10448000E8950010F495001080B500AF024B181CA1
:10449000FFF7F8FCBD4680BD6005002080B500AF89
:1044A000024B181CFFF776FDBD4680BD600500205D
:1044B000B0B582B000AF021C3960FB1D1A70FB1D45
:1044C0001B787F2B2FD92D4CFB1D1B781A1C0F231B
:1044D0001340083B9908294AFB1D1B78181C0F2321
:1044E0000340083B9B0806339B00D3185B68FA1D0A
:1044F0001278101C03220240D200101CFF228240BE
:10450000D2431A403B689B01FF200340F81D00780E
:10451000051C03202840C00083401A438B1D9B00CC
:10452000E3185A6026E0164CFB1D1B785BB29B0813
:104530001349FA1D127852B29208C03292005258B2
:10454000F91D0978081C03210140C900081CFF213E
:104550008140C94311403A689201FF200240F81D92
:104560000078051C03202840C00082400A43C03365
:104570009B001A51BD4602B0B0BDC04600ED00E040
:1045800000E100E080B582B000AF78607B68013B5D
:104590000C4A934201D9012310E00B4B7A68013A8F
:1045A0005A6001235B42181C0321FFF781FF064B71
:1045B00000229A60044B07221A600023181CBD4693
:1045C00002B080BDFFFFFF0010E000E090B587B0B3
:1045D00000AF78600F23FB1800221A706B497A68CD
:1045E000131CDB009B189B00CB1818331B68BB60A7
:1045F000674B1B68002B09D17A68131CDB009B18E2
:104600009B00624A9A18624B1A60BCE0604B1B68C0
:104610007B61BB683B61AAE07B699B691A1C3B69B3
:104620009B1A3B613B69002B77DC7B695B68002B45
:1046300025D07B695A6879680B1CDB005B189B00EE
:1046400052495B1813607B69596850487A68131C9B
:10465000DB009B189B00C31859604C497A68131CF7
:10466000DB009B189B007A695A507A68131CDB00A8
:104670009B189B00454A9A187B695A601BE0444B83
:10468000186842497A68131CDB009B189B0058503D
:104690003F4B1A6879680B1CDB005B189B003B4999
:1046A0005B1853607A68131CDB009B189B00374A29
:1046B0009A18374B1A6035497A68131CDB009B182F
:1046C0009B005B589A693B69D11830487A68131C83
:1046D000DB009B189B00C318183319602B497A68BC
:1046E000131CDB009B189B005A58284879680B1C48
:1046F000DB005B189B001B589869244C79680B1CE5
:10470000DB005B189B00E31818331B68C31A936126
:104710000F23FB1801221A7026E03B69002B23DDD2
:104720007B691B68002B1FD118497A68131CDB00BA
:104730009B189B00CB187A695A607A68131CDB00BF
:104740009B189B00114A9A187B691A6039690F48B7
:104750007A68131CDB009B189B00C3181833196080
:104760000F23FB1801221A707B691B687B617B6930
:10477000002B08D00F23FB181B7801225340DBB21B
:10478000002B00D048E7BD4607B090BD740900205B
:10479000B007002080B584B000AF78607A68131C41
:1047A000DB009B189B00284A9B18FB60FB685B683A
:1047B000002B07D1FB681B68002B03D1234B002281
:1047C0001A603DE0FB685B68002B14D1FB681A6837
:1047D0001E4B1A601D4B1B6800225A601B4B1B6846
:1047E0001A4A12689169FA6892698A189A61FB6894
:1047F00000221A6024E0FB681B68002B07D1FB68CD
:104800005B6800221A60FB6800225A6018E0FB68AF
:104810005B68FA6812681A60FB681B68FA6852687D
:104820005A60FB681B68FA6812689169FA689269B5
:104830008A189A61FB6800221A60FB6800225A609D
:10484000BD4604B080BDC04674090020B0070020FA
:1048500080B582B000AF2B4B1B687B6048E07B6863
:1048600020229B5C002B13D07B685B69181CFFF730
:1048700091FF7B6800225A737B685B691A1C0123D5
:104880009340DA43204B1B681A401F4B1A602CE000
:104890007B681B7B002B0ED17B685B69181CFFF7C4
:1048A00079FF7B6802225A737B689A687B681B6970
:1048B000181C904719E07B681B7B012B14D17B6887
:1048C0005B69181CFFF766FF7B68DA697B689A6191
:1048D0007B685B69181CFFF779FE7B689A687B68C8
:1048E0001B69181C904700E009E0064B1B687B60C1
:1048F0007B68002B03D07B689B69002BAFD0BD4643
:1049000002B080BDB0070020B407002080B582B09F
:1049100000AF0E4B1B687B600D4B1B685A1C0C4B89
:104920001A607B68002B0ED07B689B69012B05D930
:104930007B689B695A1E7B689A6104E07B68002251
:104940009A61FFF785FFBD4602B080BDB007002029
:10495000B807002080B584B000AF78600F23FB1843
:1049600000221A707B681B7801225340DBB2002BB7
:1049700020D0144B00221A60FA23DB01181CFFF729
:1049800001FE021C0F23FB181A700F23FB181B7863
:10499000012B0FD001235B42181C0321FFF788FD78
:1049A000094B00221A607B6801221A700F23FB1842
:1049B00000221A700F23FB181B78181CBD4604B088
:1049C00080BDC046B0070020B407002080B588B085
:1049D00000AFF8607A603B600B23FB180A1C1A706A
:1049E0000023FB610023BB6100237B61FB68444A19
:1049F000934202D80023FB617DE00023BB6177E096
:104A0000BB6901229A403F4B1B6813406DD1BB69C3
:104A100001229A403B4B1B681A433A4B1A603A49B1
:104A2000BA69131CDB009B189B00CB181033BA69C2
:104A30005A603549BA69131CDB009B189B00CB18E0
:104A400008330B22BA1812781A712F49BA69131C4D
:104A5000DB009B189B00CB18083302225A71FB68BD
:104A6000181CFA239900FEF74BFA031C7B617B6943
:104A7000591C2548BA69131CDB009B189B00C318FE
:104A8000183319602049BA69131CDB009B189B007E
:104A9000CB1818337A695A601B49BA69131CDB00BA
:104AA0009B189B00CB1808337A681A601649BA69BC
:104AB000131CDB009B189B00CB1810333A681A605C
:104AC0001149BA69131CDB009B189B00CB1800220C
:104AD0005A600D49BA69131CDB009B189B00002229
:104AE0005A50BB690133FB6105E0BB690133BB610F
:104AF000BB69072B84D9FB69181CBD4608B080BD73
:104B0000E7030000B40700207409002080B584B0DA
:104B100000AF78600F23FB1801221A707B685A1EC1
:104B20001C49131CDB009B189B00CB1808335B79D6
:104B3000022B28D17B685A1E7B68591E15480B1C16
:104B4000DB005B189B00C31818335B68591C1148C5
:104B5000131CDB009B189B00C318183319607B687B
:104B60005A1E0C49131CDB009B189B00CB18083302
:104B700001225A717B68013B181CFFF727FD0F23A8
:104B8000FB1800221A700F23FB181B78181CBD4657
:104B900004B080BD7409002080B582B000AF786099
:104BA00039603B6801229A407B685A62BD4602B078
:104BB00080BDC04690B587B000AF786000237B61B0
:104BC00000233B610F23FB1800221A707B687A696F
:104BD0009200D3580F22BC18181C00F0BBF8031C1D
:104BE00023707B687A699200D358DB691A1C012311
:104BF00093403A6913433B617B6901337B617B6876
:104C000039229B5C1A1E7B699A4204D90F23FB1838
:104C10001B78002BDAD00F23FB181B78002B17D141
:104C20003B699AB27B681A867B683A229B5C002BB0
:104C30000ED07B689B6A0F22BC18181C01F0FAFF8B
:104C4000031C23707B689B6A597B7B6838229954CC
:104C50000F23FB181B78181CBD4607B090BDC0463B
:104C600080B584B000AF78600023FB600023FB6058
:104C70001BE07B68FA689200D3581B69BB607B68B5
:104C8000DB6AFA685200D35A1A1CBB68181C111C44
:104C9000FEF7D8F87B685B8E1A1CBB68181C111CC9
:104CA000FEF7B8F8FB680133FB607B6839229B5C38
:104CB0001A1EFB689A42DCD87B681B681A687B68FE
:104CC0001B8E101C191CFDF7FFFFBD4604B080BDF4
:104CD00080B586B000AFF860B9607A60FB681B6889
:104CE0001B687B61FB689B6A1B683B617A697B6818
:104CF000101C191CFDF7D0FF3A69BB68101C191C69
:104D0000FEF7C4F8FB68DB6A5B8A1A1C3B69181C57
:104D1000111CFEF7AFF8FB6838229B5C1A1C7B69FC
:104D2000181C111CFFF738FFBD4606B080BDC046F9
:104D300080B582B000AF786039607B689A693B6863
:104D4000012199400B1C1A437B689A61BD4602B051
:104D500080BDC04690B585B000AF78607B685B6968
:104D60000F22BC18181C00F061F9031C23700F23DC
:104D7000FB181B78012B00D17AE07B682D229B5C0D
:104D8000002B0BD07B68D9687B682C229A5C7B68EF
:104D90009B68081C111C1A1CFDF756FD7B681968DE
:104DA0007B68DA697B685B7E081C111C1A1CFDF7A6
:104DB000ABFF7B682E229B5C002B07D07B681A68B8
:104DC0007B68DB69101C191CFDF7B2FF7B689B6ACE
:104DD000012B1DD17B681A697B685B685B785B0778
:104DE000DB0FDBB2191C7B685B685B781B07DB0F92
:104DF000DBB2101C1A1CFDF7E9FF7B6819687B68A1
:104E0000DA697B689B7E081C111C1A1CFDF7A2FF47
:104E10007B681A697B685B68101C191CFDF7C2FF70
:104E20007B681B7E012B1FD17B681A697B681B6A1C
:104E3000101C191CFDF7EEFF7B681A687B68DB69A4
:104E4000101C191CFDF74EFF7B681A697B685B6AB2
:104E5000101C191CFDF7F6FF7B681A687B68DB697C
:104E6000101C191CFFF764FF0F23FB1800221A7097
:104E70000F23FB181B78181CBD4605B090BDC0461B
:104E800080B582B000AF786039607B681A693B6892
:104E9000101C191CFDF7D6FFBD4602B080BDC046F0
:104EA00080B582B000AF786039607B681A693B6872
:104EB000101C191CFDF7AEFFBD4602B080BDC046F8
:104EC00080B582B000AF021CFB1D1A70064BFA1DA4
:104ED0001278111C1F220A40012191400A1C1A60FD
:104EE000BD4602B080BDC04600E100E0B0B582B072
:104EF00000AF021C3960FB1D1A70FB1D1B787F2B55
:104F00002FD92D4CFB1D1B781A1C0F231340083B77
:104F10009908294AFB1D1B78181C0F230340083BE6
:104F20009B0806339B00D3185B68FA1D1278101C8F
:104F300003220240D200101CFF228240D2431A40BA
:104F40003B689B01FF200340F81D0078051C0320EF
:104F50002840C00083401A438B1D9B00E3185A6011
:104F600026E0164CFB1D1B785BB29B081349FA1D0B
:104F7000127852B29208C03292005258F91D097844
:104F8000081C03210140C900081CFF218140C943BE
:104F900011403A689201FF200240F81D0078051C7C
:104FA00003202840C00082400A43C0339B001A51AE
:104FB000BD4602B0B0BDC04600ED00E000E100E03B
:104FC00080B582B000AF78607B681B785BB2181C3C
:104FD000FFF776FFBD4602B080BDC04680B582B007
:104FE00000AF78607B681A787B685B78191C53B2D5
:104FF000181CFFF77BFF7B689B78002B03D07B6836
:10500000181CFFF7DDFF0023181CBD4602B080BD51
:1050100080B582B000AF786039607B68DA6A3B683F
:105020001A437B68DA62BD4602B080BD80B584B0A9
:1050300000AF78607B689B7B01225340DBB2002B82
:105040002BD07B681A687B681B7B101C191CFDF732
:10505000EFFD7B681A687B685B7B101C191CFDF7F1
:1050600001FE7B681A687B685B68101C191CFDF7E1
:10507000C7FD7B689B68002B07D07B681A687B683C
:105080009B68101C191CFFF7C3FF0F23FB1800229D
:105090001A707B6801229A7303E00F23FB18002229
:1050A0001A700F23FB181B78181CBD4604B080BD76
:1050B00080B582B000AF786039607B6880229A58F2
:1050C0003B681033191C01238B401A437B688021F5
:1050D0005A50BD4602B080BD80B584B000AF786044
:1050E0007B681B7D022B52D17B68DA687B689B68EA
:1050F000101C191CFEF7F4F90023FB6038E07B68F4
:10510000FA689200D35819687B68FA689200D358FD
:105110005B68081C191CFEF749FA7B68FA68920064
:10512000D3581B68181C0321FEF7E8FA7B68FA685D
:105130009200D3581B7A01225340DBB2002B06D0D9
:105140007B68DA68FB68101C191CFFF7B1FF7B68ED
:105150001A69FB68DBB2101C191CFEF72FFB7B6879
:10516000FA689200D35800225A72FB680133FB6040
:10517000FB68012BC3D97B685B7D002B04D07B6867
:10518000DB68181CFEF7D8F97B6800221A757B686B
:105190001B7D181CBD4604B080BDC04680B582B0E2
:1051A00000AF021CFB1D1A700B4A0B4B1B899BB2F4
:1051B00006218B439BB213810749074B1B899AB287
:1051C000FB1D1B789BB2DB189BB213439BB20B8178
:1051D000BD4602B080BDC0460000054080B586B027
:1051E00000AF78607B681B7A002B00D184E000233D
:1051F0007B617B685A687B69DB00D3183B613B6944
:1052000000221A603B691A7902218A431A713B69AC
:105210001A7901210A431A713B691A7904218A43D8
:105220001A713B691A7908218A431A717B69013323
:105230007B617B685B7A1A1E7B699A42D9D87B684E
:105240005A68C2235B000021D1507B685A68C02392
:105250005B000021D1507B685A68BA235B000021B3
:10526000D1507B685A68BC235B000021D1507B6819
:105270005A68BE235B000021D1507B685B68002226
:10528000DA667B685B6800229A657B685B6800224F
:105290001A657B685B6800221A647B685B68002281
:1052A000DA637B685B680022DA647B685B680022F3
:1052B0005A657B685A68B8235B000021D1507B682F
:1052C0005B6800229A630120FFF768FF01F01AF87B
:1052D000031CFB60FB68181C00F0D4F87B685A685C
:1052E000BA235B00D3580A2B03D17B6800221A72C1
:1052F00002E07B6801221A727B681B7A181CBD468B
:1053000006B080BD80B584B000AF021C3960FB1DC3
:105310001A70104B5B68BB600F23FB1805221A70D4
:10532000BA68BA235B00D3580A2B0BD1FB1D1A783D
:105330003B68101C191C002201F032F9021C0F23DB
:10534000FB181A700F23FB181B78181CBD4604B0FD
:1053500080BDC0461807002080B588B000AFB96096
:105360007A603B600F23FB18021C1A70314B5B689C
:10537000BB610F23FB181B78181C00F01BFF031CDC
:105380007B612C4B1A687B69DB00D3185B683B613F
:105390001F23FB1805221A70BA69BA235B00D35881
:1053A0000A2B40D1BA683B68D2183B699A423AD876
:1053B000BA697B69DB00D3181B79DB07DB0FDBB233
:1053C000002B04D11F23FB1803221A702BE0BA69AB
:1053D0007B69DB00D3181B799B07DB0FDBB2002B4B
:1053E00004D11F23FB1802221A701CE0BB697A69E2
:1053F000D200D158BA69C6235B00D15079683A68A7
:10540000BB68081C111C1A1C01F032FB021C1F2374
:10541000FB181A701F23FB181B78002B03D01F23C7
:10542000FB1801221A701F23FB181B78181CBD469D
:1054300008B080BD1807002080B582B000AF104BC7
:105440005B683B603A68BA235B00D3580A2B03D1F0
:10545000FB1D03221A700CE03A68BA235B00D35894
:10546000092B03D1FB1D01221A7002E0FB1D04224F
:105470001A70FB1D1B78181CBD4602B080BDC046CB
:105480001807002080B584B000AF7860254B5B68BA
:10549000FB607B68032B07D1FA68BC235B00DD212E
:1054A000D15000F041F839E07B68012B18D1FA683F
:1054B000BC235B00D3580F221340191CFA68BC238D
:1054C0005B00D150FA68BC235B00D358D0221A434A
:1054D000111CFA68BC235B00D15000F041F81DE0BC
:1054E0007B68022B18D1FA68BC235B00D358F022EA
:1054F0001340191CFA68BC235B00D150FA68BC2326
:105500005B00D3580D221A43111CFA68BC235B00C0
:10551000D15000F025F801E000F076F8BD4604B067
:1055200080BDC0461807002080B582B000AF0B4B8D
:105530005B687B60094B9B7A012B07D17B6800225B
:105540009A630120012100F057F904E07A68BA2338
:105550005B000921D150BD4602B080BD1807002074
:1055600080B582B000AF274B5B687B607A68BC2354
:105570005B00D358AD2B1AD004D80D2B29D02D2B7E
:1055800007D038E0D22B0BD0DA2B19D0D02B29D072
:1055900031E07B6800229A63302000F099F92DE019
:1055A0007B6801229A63302000F092F926E07B6844
:1055B00000229A6300200721012200F0C3F91DE0B8
:1055C0007B6801229A6300200721012200F0BAF9CA
:1055D00014E07B6801229A6320200321002200F05E
:1055E000B1F90BE07B6800229A632020032100229E
:1055F00000F0A8F902E0FFF797FFC046BD4602B0F1
:1056000080BDC0461807002080B500AF00F00EF83E
:10561000031E09D100F056F8031E05D100F09EF8D4
:10562000031E01D1FFF780FFBD4680BD80B582B06B
:1056300000AF234B5B683B6001237B603A68BC236F
:105640005B00D3582E2B0AD004D8202B1FD02A2B36
:105650000DD02CE02F2B22D0A02B10D027E03B68C0
:1056600000229A630A20002100F0C6F822E03B687D
:1056700000229A630420302100F0EEF81AE03B6823
:1056800000229A630720022100F0B6F812E03B687E
:1056900000229A630320022100F0AEF80AE03B6882
:1056A00000229A630820022100F0A6F802E00023FD
:1056B0007B60C0467B68181CBD4602B080BDC046FA
:1056C0001807002080B582B000AF234B5B683B60B9
:1056D00001237B603A68BC235B00D358A22B12D015
:1056E00004D8022B1FD00A2B15D02CE0E22B02D0BD
:1056F000F22B20D027E03B6801229A630A20002188
:1057000000F07AF822E03B6801229A6304203021FD
:1057100000F0A2F81AE03B6801229A6307200221F8
:1057200000F06AF812E03B6801229A63032002212C
:1057300000F062F80AE03B6801229A630820022127
:1057400000F05AF802E000237B60C0467B68181C1A
:10575000BD4602B080BDC0461807002080B582B0AB
:1057600000AF244B5B683B6001237B603A68BC233D
:105770005B00D358F02B2CD004D80F2B20D0AF2BAC
:105780000CD02FE0FA2B12D0FF2B2BD13B6800223C
:105790009A630120012100F02FF826E03B680022E7
:1057A0009A6300200721012200F0CCF81DE03B683D
:1057B00001229A6300200721012200F0C3F814E0BF
:1057C0003B6801229A6320200321002200F0BAF8EE
:1057D0000BE03B6800229A6320200321002200F0A6
:1057E000B1F802E000237B60C0467B68181CBD4610
:1057F00002B080BD1807002080B584B000AF78608B
:105800003960144B5B68FB6000F046FD3B68012B80
:1058100009D1FA68BA235B007968D15000F0B0FA78
:1058200000F02EFB13E03B68022B09D1FA68BA2383
:105830005B007968D15000F023FB00F0C3F806E06C
:1058400000F01EFBFA68BA235B007968D150BD46B0
:1058500004B080BD1807002080B584B000AF786028
:1058600039601A4B5B68FB6000F016FDFA68BA23DA
:105870005B007968D15000F003FBFB689B6C181C3F
:1058800000F048FE031CBB60BB68002B16D100F083
:10589000DFFDFB68DA6B3B68D318181C00F064FE70
:1058A000031CBB60BB68002B02D100F08BF80AE040
:1058B000FA68BA235B000921D15004E0FA68BA23E0
:1058C0005B000921D150BD4604B080BD18070020FF
:1058D00080B584B000AF7860194B5B68FB6000F066
:1058E000DBFCFB689B6C181C00F014FE031CBB6007
:1058F000BB68002B1BD100F0ABFDFB68DA6B7B684B
:10590000D318181C00F030FE031CBB60BB68002BD2
:1059100007D100F0B5FAFA68BA235B000A21D1502A
:105920000AE0FA68BA235B000921D15004E0FA6862
:10593000BA235B000921D150BD4604B080BDC046EA
:105940001807002080B586B000AFF860B9607A60B3
:105950001B4B5B687B6100F09FFCFB68181C00F030
:1059600095FDFCF793FE7B68012B08D17B69DA6B10
:105970007B697033101C191C01F016F907E07B6974
:105980001A6C7B697033101C191C01F00DF901F0C1
:1059900025F9031C3B613B69002B09D17A69BA23C5
:1059A0005B00B968D15000F06BFA00F00BF804E02E
:1059B0007A69BA235B000921D150BD4606B080BD8B
:1059C0001807002080B582B000AF244B5B687B6075
:1059D0007A68BA235B00D358082B2CD89A00204B46
:1059E000D3181B689F4600F081F827E000F0E8F824
:1059F00024E0FCF74BFE7B681A6C7B685C33101C60
:105A0000191C01F0C1F87A68BA235B000521D15056
:105A100014E000F04BF911E00720032100F072F9C7
:105A20000CE00320082100F06DF907E008200A21AE
:105A300000F068F902E000F015F8C0467A68BA2371
:105A40005B00D3580A2B05D07A68BA235B00D35881
:105A5000092BBDD1BD4602B080BDC046180700204D
:105A60008896001080B584B000AF1F4B5B687B60E8
:105A700000F0EEFC7B68DB6B1033181C00F074FD4B
:105A8000031C3B603B68002B25D17B68BB60002377
:105A9000FB60BB681A7904218A431A71FB680133E1
:105AA000FB60BB680833BB600F4B5B7A1A1EFB6858
:105AB0009A42EED17A68BE235B000021D1507A6809
:105AC000BA235B000121D1507B68DB6B5A1CFF328B
:105AD0007B68DA6304E07A68BA235B000921D1505D
:105AE000BD4604B080BDC0461807002080B584B014
:105AF00000AF324B5B683B600023FB603A68BE231B
:105B00005B00D358BB60BB68DB003A68D3187B608E
:105B10001AE07B681B68002B10D07B681B7902227F
:105B20001340DBB2002B09D07B681B7904221340A1
:105B3000DBB2002B02D10123FB6005E0BB6801331F
:105B4000BB607B6808337B60FB68002B05D11B4B77
:105B50005B7A1A1EBB689A42DBD1FB68012B16D117
:105B60007B681A683B681A643B6800225A65FCF738
:105B70008DFD3B681A6C3B685C33101C191C01F0EE
:105B800003F83A68BA235B000521D1500EE03B6868
:105B9000DA6B3B68DA643B681A6D3B681A6400F0A4
:105BA0007BFB3A68BA235B000621D1503A68BE23DA
:105BB0005B00B968D150BD4604B080BD1807002015
:105BC00080B586B000AF384B5B683B613A69BE2355
:105BD0005B00D3587B617B69DB003A69D318FB60BB
:105BE0003B69DB6B181C00F0BFFC031CBB60BB688F
:105BF000002B4BD13B695B6D5A1C3B695A652A4BA4
:105C00001A687B69DB00D3185B687B607B68181CB3
:105C100000F000FB031C3B603B695A6D3B689A42F5
:105C200006D0FB681B7901221340DBB2002B1BD18D
:105C3000FB681A7904210A431A717B6901337B617D
:105C40003A69BA235B000121D1503B69DB6B103309
:105C50001A1C3B69DA633B69DA6B3B695B6D1B01BC
:105C6000D21AFB681A6016E03B691B6C10331A1CD1
:105C70003B691A643B69DB6B10331A1C3B69DA63BE
:105C80003A69BA235B000221D15004E03A69BA2391
:105C90005B000921D1503A69BE235B007969D1507C
:105CA000BD4606B080BDC0461807002080B582B052
:105CB00000AF134B5B687B6000F0CAFB7B681B6C1A
:105CC0002033181C00F050FC031C3B603B68002B89
:105CD0000DD17B689B6B01225A407B689A6300F070
:105CE000DBFA7A68BA235B000721D15004E07A68B6
:105CF000BA235B000921D150BD4602B080BDC04629
:105D00001807002080B584B000AF786039601B4B65
:105D10005B68BB607B68072B09D100F099FBBB680F
:105D20001B6C181C00F020FC031CFB6014E07B685B
:105D3000032B07D1BB689B6C181C00F0EBFB031C0A
:105D4000FB6009E000F084FBBB68DB6B3033181CA0
:105D500000F00AFC031CFB60FB68002B05D1BA684D
:105D6000BA235B003968D15004E0BA68BA235B00FB
:105D70000921D150BD4604B080BDC046180700209F
:105D800080B582B000AF3B4B5B687B607A68BA231A
:105D90005B00D358042B02D0052B1FD035E0202008
:105DA00000F074FBFCF772FC7B687033324A101C05
:105DB000191C00F0F9FE00F011FF031C3B603B686A
:105DC000002B05D17A68BA235B000521D15042E04F
:105DD0007A68BA235B000921D1503CE000F038FB1F
:105DE000264B181C00F0C0FB031C3B603B68002BDB
:105DF00005D17A68BA235B000A21D1502BE07A687A
:105E0000BA235B000921D15025E07B685B6C181C2C
:105E100000F080FB031C3B603B68002B15D17B68C6
:105E20009B6C181C00F076FB031C3B603B68002B4E
:105E300005D17A68BA235B000421D1500AE07A6860
:105E4000BA235B000921D15004E07A68BA235B00D1
:105E50000921D150C0467A68BA235B00D3580A2B77
:105E600005D07A68BA235B00D358092B8ED1BD4682
:105E700002B080BD18070020000A0110300D01108B
:105E800080B584B000AF394B5B687B607B689B6BEF
:105E9000002B02D1364BFB6001E0364BFB607B6888
:105EA00000229A657A68C2235B00FF21D1507A688C
:105EB000C0235B000121D1507B681B6DBC22920086
:105EC0009A187B681A65FB68181C00F055F8031CCB
:105ED000BB607A68C0235B00D358012BF3D07B688A
:105EE000DB6C002B05D17B681B6D10331A1C7B68A3
:105EF000DA6431E0BB682022134002D100F09AF846
:105F00001BE07A68C2235B00D358FF2B0DD07B685F
:105F10003B607A68C2235B00D358DB003A68D31831
:105F20003B603B68012252421A607A68C2235B00E0
:105F3000FF21D1507B6800229A657B681A6DFB684F
:105F40009A4205D17A68C0235B000421D15003E056
:105F500000F00CF9031CBB607A68C0235B00D358C7
:105F6000042BC7D1BD4604B080BDC0461807002031
:105F7000000B0110000E011080B586B000AF7860F4
:105F80002B4B5B687B61FCF781FB7B691A6D7B693E
:105F90005C33101C191C00F0F7FD00F01FFE031C01
:105FA0003B613B69202213401BD07B69DB6C002BDB
:105FB00005D17B691B6D10331A1C7B69DA647B6920
:105FC0001A6D7B689A4205D17A69C0235B0004216F
:105FD000D15028E07B691B6D103B1A1C7B691A6548
:105FE00021E07B695C33FB60FB681B6801330AD0EE
:105FF0007B699B6D5A1C7B699A657A69C0235B003B
:106000000221D1500FE07B691A6D7B689A4204D15E
:106010007A69C0235B000421D1507B691B6D103B62
:106020001A1C7B691A653B69181CBD4606B080BD09
:106030001807002080B588B000AF4B4B5B68FB6150
:10604000FB695C33BB611723FB18BA6912781A70BD
:10605000BB695B783B61FB69FB601723FB181B780E
:10606000181C00F0A7F8031CBB60BB68FF2B00D115
:106070006FE0BB68DB00FA68D318FB60FA69C223E3
:106080005B00B968D150FB681B68002B58D13B6995
:106090008022134065D0FB691A6DFB681A603B696A
:1060A0004022134014D0FB681A7901210A431A7167
:1060B0003B691022134005D0FB681A7908210A4376
:1060C0001A710AE0FB681A7908218A431A7104E000
:1060D000FB681A7901218A431A71234B1A68BB683D
:1060E000DB00D3185B687B607B68181C00F092F8BB
:1060F000031C3B60FB699A6D3B689A4205D1FB68C3
:106100001A7902210A431A7111E0FB681B790122F6
:106110001340DBB2002B05D0FB681A7902218A43B9
:106120001A7104E0FB681A7902210A431A71FA69AC
:10613000C2235B00FF21D150FB6900229A6510E069
:10614000FA69C2235B00FF21D150FB6900229A65E6
:1061500007E0FA69C2235B00FF21D150FB690022EE
:106160009A65BD4608B080BD1807002080B582B092
:1061700000AF0F4B5B687B607B681B6D103B1A1C8C
:106180007B681A65FCF782FA7B681A6D7B685C3362
:10619000101C191C00F0F8FC7B689B6D5A1C7B6876
:1061A0009A6500F01BFD031C181CBD4602B080BDA3
:1061B0001807002080B584B000AF021CFB1D1A70C8
:1061C0000023FB60124B1A68FB68DB00D318BB602E
:1061D00005E0FB680133FB60BB680833BB600C4B18
:1061E0005B7A1A1EFB689A4205D9BB681B78FA1DB8
:1061F00012789A42EDD1064B5B7A1A1EFB689A42DE
:1062000001D1FF23FB60FB68181CBD4604B080BDB4
:106210001807002080B584B000AF78600123FB60D0
:106220007B680C2B0FD97B680C3B7B60FB680133D0
:10623000FB6005E0FB680133FB607B680E3B7B6025
:106240007B680E2BF6D8FB68181CBD4604B080BDD9
:1062500080B584B000AF0D4B5B68BB60BB689B6BC7
:10626000002B02D10A4BFB6001E00A4BFB60BB68CC
:10627000DB6CFA68D31AC0229200944663441B096F
:106280007B607B68181CBD4604B080BD18070020E9
:10629000000A0110000D011080B582B000AF144B50
:1062A0005B687B607B689B6B002B0FD17B68114A1E
:1062B0001A657B680F4A1A647B680F4ADA637B6849
:1062C0000E4A5A647B680E4A9A640EE07B680A4A5A
:1062D0001A657B68084A1A647B68064ADA637B6839
:1062E000074A5A647B68054A9A64BD4602B080BD7D
:1062F00018070020000A0110000D0110FF0C01100A
:10630000FF0F011080B588B000AF204B5B683B6188
:106310000023FB6100237B610023BB61FB695B0001
:10632000FB61BB699B08FB60FB689B00BA69D31AE1
:10633000BB60FA68BB68101C191C00F029F8031C2C
:106340007B607B68013304D1FB6901221343FB614D
:106350000CE07B68002B09D0BB699B083B603B6865
:1063600001229A40131C7A6913437B61BB69013394
:10637000BB61BB69072BD1D93A69BC235B00F969C2
:10638000D1507B69181CBD4608B080BD180700209D
:1063900080B58AB000AF786039602B4B5B687B6159
:1063A0000023FB610023BB617B695C333B617A683E
:1063B000131C5B009B181B011A1C3B68D318234A53
:1063C000944663441B01FB60FCF760F9FA683B6983
:1063D000101C191C00F0D8FB00F000FC031E02D0BA
:1063E000DD233B622BE000237B6216E07B6A9B008F
:1063F0003A69D3181B68002B02D1BB690133BB611A
:106400007B6A9B003A69D3181B68013302D1FB6990
:106410000133FB617B6A01337B627B6A032BE5D925
:10642000FB69042B03D101235B423B6207E0BB699C
:10643000042B02D100233B6201E0DD233B623B6A77
:10644000181CBD460AB080BD18070020A01000012E
:1064500080B584B000AF0C4B5B68BB60BB685C333D
:106460007B600023FB6008E0FB689B007A68D31820
:1064700000221A60FB680133FB60FB68032BF3D931
:10648000BD4604B080BDC0461807002080B588B066
:1064900000AF78601E4B5B68FB60FB6870333B614C
:1064A0000023BB611EE0BB698022DA40131C7A68BE
:1064B000134002D100237B6102E001235B427B6138
:1064C0000023FB6108E03B697A691A603B69043389
:1064D0003B61FB690133FB61FB69032BF3D9BB69AA
:1064E0000133BB61BB69032BDDD90023FB6109E0EC
:1064F0003B69012252421A603B6904333B61FB69EC
:106500000133FB61FB692F2BF2D9BD4608B080BD7A
:106510001807002080B584B000AF78607B68013B2D
:10652000FF3B7B607B6801337B600023FB60FCF7F3
:10653000ADF87B68181C00F045FB00F04FFB031C16
:10654000BB607B68013BFF3B7B60FB680133FB600A
:10655000FB68022B02D8BB68002BE8D0BB68181C74
:10656000BD4604B080BDC04680B584B000AF786041
:106570000A4B5B68FB60FCF789F8FB685C337A6860
:10658000101C191C00F0F0FA00F028FB031CBB6083
:10659000BB68181CBD4604B080BDC046180700206B
:1065A00080B58CB000AFB9607A600F23FB18021C75
:1065B0001A703B4B5B687B620023FB620023BB626B
:1065C0000F23FB181B78181CFFF7F4FD031C3B621C
:1065D000334B1A683B6ADB00D318FB61FB695B68CD
:1065E000181CFFF717FE031CBB61FFF731FE031CED
:1065F0007B617A69BB699A4228D2294B1B7B012BAC
:1066000021D17A6ABA235B000421D150FFF7DAF96D
:10661000FB695B68181CFFF7FDFD031CBB61FFF7FE
:1066200017FE031C7B617A69BB699A4208D37A6AB8
:10663000BA235B00D3580A2B02D10123BB6207E0C7
:106640000523FB6204E00623FB6201E00123BB6239
:10665000BB6A012B1FD17B6A00229A657B68012BE4
:106660000AD10F23FB181A783B6A101C191C00F082
:10667000C9F8031CFB6209E00F23FB181A78BB68FA
:10668000101C191C00F00EF8031CFB62FB6A002BA7
:1066900001D00123FB62FB6A181CBD460CB080BD13
:1066A0001807002080B588B000AF021C3960FB1DC0
:1066B0001A70534B5B68BB61FB1D1B78181CFFF7FE
:1066C00079FD031C7B614E4B1A687B69DB00D31894
:1066D0003B613B695B68FB60BA69B8235B000021E2
:1066E000D150BA69C4235B000121D1500023FB6162
:1066F000BA69C4235B00D358022B02D0032B12D0FB
:106700004AE000F08FF9031CFB61FB69002B09D103
:10671000FB1D19783A68FB68081C111C1A1C00F054
:1067200029F943E042E000F07DF9031CFB61FB69BD
:10673000002B30D1BB69D96CBB697A69D200D150CA
:10674000BA697B69DB00D3181A7901210A431A71EF
:10675000BA697B69DB00D3181A7902210A431A71DE
:10676000274BDB7A012B08D1BA697B69DB00D31890
:106770001A7908210A431A7107E0BA697B69DB00BC
:10678000D3181A7908218A431A71BA69C4235B00A5
:106790000021D1500AE009E0FB1D19783A68FB6836
:1067A000081C111C1A1C00F083F8C046FB69002B62
:1067B00005D1BA69C4235B00D358002B98D1BB69BB
:1067C000DA6CBB699B6D1B01D218BB69DA64FB698B
:1067D000002B0FD0BA697B69DB00D3181A7901212D
:1067E0000A431A71BA697B69DB00D3181A7902214E
:1067F0008A431A71FB69181CBD4608B080BDC046AB
:106800001807002080B586B000AF021C3960FB1D60
:106810001A70264B5B683B613B695C33FB60FB682D
:10682000FA1D12781A70FB68013380221A70022355
:106830007B6107E0FA687B69D318FF221A707B69D5
:1068400001337B617B690F2BF4D900F0EBF8031C5B
:10685000BB60BB68002B0ED13A693B68DB00D318E4
:106860001A7902210A431A713B69D96C3B693A686B
:10687000D200D15007E03A693B68DB00D3181A799F
:1068800002218A431A713A693B68DB00D3181A79EE
:1068900001218A431A713B69DB6C10331A1C3B6976
:1068A000DA64BB68181CBD4606B080BD180700201E
:1068B00080B58AB000AFB9607A600F23FB18021C64
:1068C0001A702A4B5B683B623B6A5C33FB613A6A35
:1068D000C4235B000221D150254BBB6100237B61A7
:1068E0000F23FB181A787B69C0210B431B021A4344
:1068F000BB691B041A43FB691A6004237B623A6A72
:10690000B8235B00D2587B689A4214D2FA697B6A3A
:10691000D318396AB82252008A58B9688A1812788E
:106920001A703A6AB8235B00D358591C3A6AB823E4
:106930005B00D15004E0FA697B6AD318FF221A7019
:106940007B6A01337B627B6A102BD8D13A6AB82309
:106950005B00D2587B689A4204D33A6AC4235B0036
:106960000321D150BD460AB080BDC04618070020A3
:106970000000A5A580B588B000AFB9607A600F238C
:10698000FB18021C1A70264B5B68BB61BB695C3349
:106990007B617B690F22BA1812781A707B69013308
:1069A00040221A700223FB61BA69B8235B00D258F7
:1069B0007B689A4214D27A69FB69D318B969B82204
:1069C00052008A58B9688A1812781A70BA69B823BE
:1069D0005B00D358591CBA69B8235B00D15009E059
:1069E0007A69FB69D318FF221A70BA69C4235B0065
:1069F0000321D150FB690133FB61FB69102BD3D11B
:106A0000BA69B8235B00D2587B689A4204D3BA694A
:106A1000C4235B000321D150BD4608B080BDC046F1
:106A20001807002080B584B000AF104B5B68FB6096
:106A3000FB68DA6CFB689B6D1B01D318BB60FB68BD
:106A40009B6D5A1CFB689A65FBF720FEFB685C3364
:106A5000BA68101C191C00F087F800F0BFF8031C7E
:106A60007B607B68181CBD4604B080BD1807002001
:106A700080B58CB000AFF860B9607A600023FB622B
:106A800000233B620023BB62364B5B68FB61FA6903
:106A9000C6235B00D358BB617B680B2B13D9BB6A41
:106AA0000133BB627B680C3B7B6005E0BB6A013352
:106AB000BB627B680E3B7B607B680D2BF6D87B68E6
:106AC00002337B6002E07B6804337B607B681022CA
:106AD000D31A7B62BB6A1A01BB69D3187B61FBF7CF
